:020000040800F2
:100000006805002001010008911A00088519000800
:10001000591A0008490300085D200008000000008C
:10002000000000000000000000000000B91A0008F5
:100030009D03000800000000931A0008BB1A000886
:100040001B0100081B0100081B0100081B01000820
:100050001B0100081B0100081B0100081B01000810
:100060001B0100081B0100081B0100081B01000800
:100070001B0100081B0100084D030008590300087C
:100080001B0100081B0100081B0100081B010008E0
:100090001B0100081B0100081B0100081B010008D0
:1000A0001B0100081B0100081B0100081B010008C0
:1000B000111B00081B0100081B0100081B010008A0
:1000C0001B0100081B0100081B0100081B010008A0
:1000D0001B010008512000081B0100081B0100083B
:1000E0001B0100081B0100081B010008DFF80CD0F1
:1000F00000F018F900480047952400086805002022
:100100000648804706480047FEE7FEE7FEE7FEE7B1
:10011000FEE7FEE7FEE7FEE7FEE7FEE70D1B000851
:10012000ED000008D2B201E000F8012B491EFBD21D
:1001300070470022F6E710B513460A4604461946F2
:10014000FFF7F0FF204610BD30B5054600200346FE
:1001500000E05B1C934205D2EC5CC85C201A01D124
:10016000002CF6D130BD80EA010210B502F0004348
:10017000400022D04A001FD0010E01EB1261C0F3F3
:100180005600C2F3560240F4000042F40002A0FB05
:10019000022000047F39140400D0401C50EA1240B1
:1001A00001D44000491EC2B20C0604EBD010401C22
:1001B0004008802A02D003E0002010BD20F001009A
:1001C000002900DA0020184310BD30B480EA010293
:1001D00002F0004530F0004221F0004013D090B111
:1001E000C30DD40DC2F31601C0F31600E41A41F496
:1001F000000140F400027D34914201D3641C00E010
:100200004900002C02DA30BC002070474FF4000097
:100210000023914201D3891A034340084FEA410168
:10022000F7D151B1914202D14FF0004105E002D225
:100230004FF0010101E06FF0010103EBC4502844CD
:1002400030BC00F038B8C10F80EAE0700844CA073B
:100250009623002100F038B800F0004220F0004062
:10026000C10DC0F3160040F400007F2901DA002020
:100270007047962903DCC1F19601C84001E0963928
:100280008840002AF4D04042704730B50B46014602
:1002900000202022012409E021FA02F59D4205D325
:1002A00003FA02F5491B04FA02F52844151EA2F1CF
:1002B0000102F1DC30BD0029A8BF7047401C490095
:1002C00008BF20F00100704710B4B0FA80FC00FABB
:1002D0000CF050EA010404BF10BC704749B1CCF1E6
:1002E000200421FA04F411FA0CF118BF0121214372
:1002F0000843A3EB0C01CB1D4FEA00614FEA10202D
:1003000042BF002010BC704700EBC35010440029CE
:10031000A4BF10BC7047401C490008BF20F001007A
:1003200010BC7047064C074D06E0E06840F0010342
:1003300094E8070098471034AC42F6D3FFF7DAFE92
:10034000E025000800260008FEE70000014800F054
:100350009DB8000020010020014800F097B800007F
:10036000DC00002010B490F840C0012404FA0CFC1A
:10037000C46BC4F804C0D0F800C0CCF804304368A3
:10038000102B05D0036899600068C26010BC7047EC
:1003900003689A600068C16010BC7047704770477E
:1003A00090F821100022022905D00421816380F8F1
:1003B00020200120704701680B6823F00E030B60BA
:1003C00001680B6823F001030B6090F84030D0F80F
:1003D0003CC0012101FA03F3CCF8043080F821106D
:1003E00080F820201046704710B5002490F82110A6
:1003F000022903D004218163012437E001680A68DF
:1004000022F00E020A6001680A6822F001020A6006
:10041000174A0168914201D101211CE0154A91421D
:1004200001D1102117E0144A914201D1891512E03F
:10043000124A914201D189140DE0114A914202D130
:100440004FF4803107E00F4A914202D14FF48011FE
:1004500001E04FF080710C4A5160012180F82110B9
:10046000002180F82010416B01B18847204610BD63
:10047000080002401C0002403000024044000240DC
:10048000580002406C000240000002402DE9F05F7D
:10049000C16B0A6801680B68D0F840C0042404FAF4
:1004A0000CF414424E4C4F4D4F4E504FDFF84081EC
:1004B000DFF8409131D013F0040F2ED00A6812F00B
:1004C000200F03D10A6822F004020A600168A142E9
:1004D00001D1042119E0A94201D1402115E0B14226
:1004E00002D14FF4806110E0B94202D14FF4804153
:1004F0000BE0414502D14FF4802106E0494502D18D
:100500004FF4800101E04FF080613B4A5160C16AC5
:10051000002962D0BDE8F05F08474FF0020A0AFAEE
:100520000CFA1AEA020F4FF0000A4FF0010B35D017
:1005300013F0020F32D00A6812F0200F05D10A68BA
:1005400022F00A020A6080F821B00168A14201D1BC
:10055000022119E0A94201D1202115E0B14202D1C6
:100560004FF4007110E0B94202D14FF400510BE09A
:10057000414502D14FF4003106E0494502D14FF424
:10058000001101E04FF000711B4A516080F820A07B
:10059000816A002921D0BDE8F05F0847082404FAE9
:1005A0000CFC1CEA020F18D013F0080F15D00A68D3
:1005B00022F00E020A6090F84010C26B0BFA01F1B3
:1005C0005160C0F838B080F821B080F820A0016BED
:1005D000002902D0BDE8F05F0847BDE8F09F0000A9
:1005E000080002401C00024030000240440002406B
:1005F000580002406C0002400000024010B4002885
:1006000034D01C4A01688B181B4AA2FB0332120922
:1006100092000264194AC263022280F821200A680B
:100620006FF30D12D0F808C04368046943EA0C0365
:10063000D0F80CC04CEA040C43EA0C03D0F814C008
:1006400043EA0C03D0F818C043EA0C03D0F81CC0EE
:1006500043EA0C031A430A6000218163012280F8F7
:10066000212080F8201010BC0020704710BC012011
:1006700070470000F8FFFDBFCDCCCCCC000002409D
:1006800070B50446002594F8200001280DD0012003
:1006900084F8200094F821C00020BCF1010F06D09E
:1006A00084F820000225284670BD022070BD4FF05E
:1006B000020C84F821C0A0632068D0F800C02CF0A0
:1006C000010CC0F800C02046FFF74CFEE06A28B1DC
:1006D0002068016841F00E01016009E020680168AE
:1006E00021F0040101602068016841F00A01016005
:1006F0002068016841F001010160D4E770B504464B
:1007000000F01CF90546B4F1FF3F02D00448007820
:10071000044400F013F9401BA042FAD370BD00005E
:10072000200000202DE9F84F4FF0000C00230A684C
:10073000002A7DD0DFF8DC810F2708F1040909F1D8
:10074000040A0AF1040B012202FA0CF60A6832408C
:10075000B2426ED1DFF8C0E14C68A4EB0E057445DF
:100760002BD00DDC032C34D005DC34B3012C19D094
:10077000022C2FD11BE0112C16D0122C2AD119E0FB
:10078000B5F5881F19D006DCB5F5803F15D0B5F555
:10079000801F1FD111E0B5F5001F0ED0B5F5041F65
:1007A00018D10AE0CB6815E0CB681B1D12E0CB68BE
:1007B00008330FE0CB680C330CE08B6823B1012BBE
:1007C00004D00823466105E0042303E00823066102
:1007D00000E00023B2F5807F01D2054601E000F180
:1007E000040502D24FEA8C0403E0ACF108044FEA9E
:1007F00084042E6807FA04FE26EA0E0603FA04F4BF
:1008000046EA04042C604C6814F0805F79D0434CB5
:10081000A56945F00105A561A46904F001040094EF
:100820002CF0030404F1804404F58034A66801E050
:100830006EE066E04FEA8C754FEA157507FA05FE23
:1008400026EA0E0EA0F18046B6F584361ED0A0F141
:100850008046B6F586361BD0A0F18046B6F58836C0
:1008600018D0A0F18046B6F58A3615D0042606FACF
:1008700005F545EA0E05A5604C6814F4803F0DD0DF
:10088000D8F800401443C8F800400CE00026EEE71A
:100890000126ECE70226EAE70326E8E7D8F800405D
:1008A0009443C8F800404C6814F4003F05D0D9F8D0
:1008B00000401443C9F8004004E0D9F800409443D4
:1008C000C9F800404C6814F4801F05D0DAF80040E5
:1008D0001443CAF8004004E0DAF800409443CAF830
:1008E00000404C6814F4001F05D0DBF800402243A0
:1008F000CBF8002005E0DBF8004024EA0202CBF848
:1009000000200CF1010C0A6832FA0CF27FF41BAFE4
:10091000BDE8F88F000401400000111000100240F3
:100920008068084201D00120704700207047002AEB
:1009300001D0016170470904016170470148806876
:1009400070470000200000200248816802781144AE
:10095000816070472000002010B50748016841F011
:1009600010010160032000F08BF8002000F006F871
:1009700000F026F8002010BD0020024070B50446AB
:100980000D4D4FF47A712878B1FBF0F00B490968EE
:10099000B1FBF0F000F0BEFB08B1012070BD102CDF
:1009A00007D200222146501E00F036F86C6000206D
:1009B00070BD012070BD0000200000202C00002030
:1009C0000C4808B5816941F001018161816901F03C
:1009D00001010091C16941F08051C161C06900F01D
:1009E000805000900448416821F0E06141F00071BE
:1009F000416008BD001002400000014000280ADBF1
:100A000000F01F01012202FA01F14009800000F10B
:100A1000E020C0F80011704710B4184B1B68C3F3F6
:100A20000223C3F1070CBCF1040F01D94FF0040CF1
:100A30001C1D072C01D2002300E0DB1E012404FA58
:100A40000CFCACF1010C0CEA0101994004FA03F32F
:100A50005B1E1A401143002806DB00F1E02009016B
:100A600080F8001410BC704700F00F0000F1E02087
:100A7000090180F8141D10BC704700000CED00E067
:100A800000F00700064A11684FF6FF03194041EADB
:100A9000002040F0FD7040F0806010607047000062
:100AA0000CED00E02DE9F04704460D46002C17D070
:100AB000DFF85C81D8F8000000F00700A84212D2ED
:100AC000D8F8000020F007002843C8F80000D8F844
:100AD000000000F00700A84205D00120BDE8F08723
:100AE0000120BDE8F08720684A4E10F0020F14D0B4
:100AF00010F0040F03D0706840F4E060706020785C
:100B000010F0080F03D0706840F460507060706897
:100B100020F0F001A06808437060207810F0010F09
:100B20003AD06068012806D002280BD0316811F055
:100B3000020F27D00AE0316811F4003F06D10120EE
:100B4000BDE8F087316811F0007F18D0716821F09E
:100B5000030108437060FFF7F1FE074670686168A3
:100B600000F00C00B0EB810F16D041F28839FFF78E
:100B7000E5FEC01B484508D90320BDE8F0870120E9
:100B8000BDE8F0870120BDE8F0877068616800F07B
:100B90000C00B0EB810FEAD1D8F8000000F007009C
:100BA000A8420FD9D8F8000020F007002843C8F861
:100BB0000000D8F8000000F00700A84202D0012091
:100BC000BDE8F087207810F0040F05D07068E16868
:100BD00020F4E06008437060207810F0080F06D021
:100BE0007068216920F4605040EAC100706000F034
:100BF0003FF87168084AC1F30311515CC8400749C6
:100C0000086007480068FFF7B9FE0020BDE8F087DC
:100C10000020024000100240C82500082C000020DF
:100C20002400002001480068704700002C000020CC
:100C300000B5FFF7F7FF04494968044AC1F30221F0
:100C4000515CC84000BD000000100240D8250008DB
:100C500000B5FFF7E7FF04494968044AC1F3C22120
:100C6000515CC84000BD000000100240D8250008BB
:100C700085B015A0836842680168C068039302923A
:100C80000191049014A000680090144B5968144816
:100C900001F00C02042A11D0082A0FD101A8C1F3D7
:100CA0008342805C11F4803F0AD05968C1F340410F
:100CB0001DF801100A4A5043B0FBF1F005B070472F
:100CC000084905B0484370470203040506070809B0
:100CD0000A0B0C0D0E0F1010010200000010024054
:100CE00000127A0000093D002DE9F84F0446002C5F
:100CF0000FD02078F84D10F0010F6CD0686800F02C
:100D00000C0004280CD0686800F00C00082803D000
:100D100010E00120BDE8F88F686810F4803F09D02A
:100D2000286810F4003F56D06068002853D1012095
:100D3000BDE8F88F6068B0F5803F15D0C8B1B0F558
:100D4000A02F1FD0286820F480302860286820F465
:100D500080202860606858B3FFF7F0FD06462868D9
:100D600010F4003F17D036E0286840F48030286047
:100D7000F0E7286820F480302860286820F480207C
:100D80002860E7E7286840F480202860286840F45D
:100D900080302860DEE7FFF7D1FD801B642802D990
:100DA0000320BDE8F88F286810F4003FF3D012E06C
:100DB000FFF7C4FD0646286810F4003F0BD0FFF78C
:100DC000BDFD801B642802D90320BDE8F88F286888
:100DD00010F4003FF3D12078C04F10F0020F4FF015
:100DE000010B4FF0000854D0686810F00C0F14D0BD
:100DF000686800F00C00082803D1686810F4803F90
:100E00000BD0206978B3C7F800B0FFF797FD06460E
:100E1000286810F0020F12D01DE0286810F0020FB1
:100E200005D02069012802D00120BDE8F88F28688C
:100E3000616920F0F80040EAC100286029E0FFF76E
:100E40007DFD801B022802D90320BDE8F88F2868A9
:100E500010F0020FF3D02868616920F0F80040EA32
:100E6000C100286015E0FFE7C7F80080FFF766FDC6
:100E70000646286810F0020F0BD0FFF75FFD801BBD
:100E8000022802D90320BDE8F88F286810F0020F6D
:100E9000F3D1207810F0080F30D09148A169C1B18A
:100EA000C0F800B0FFF74AFD0646686A10F0020F6E
:100EB0000BD1FFF743FD801B022802D90320BDE8B8
:100EC000F88F686A10F0020FF3D0012000F0E2FD05
:100ED00014E0C0F80080FFF731FD0646686A10F0A4
:100EE000020F0BD0FFF72AFD801B022802D9032036
:100EF000BDE8F88F686A10F0020FF3D1207810F087
:100F0000040F6FD00026E86910F0805F08D1E8690F
:100F100040F08050E861E86900F0805000900126C0
:100F2000DFF8C0A1DAF8000010F4807F1BD1DAF8F6
:100F3000000040F48070CAF80000FFF7FFFC814613
:100F4000DAF8000010F4807F0DD1FFF7F7FCA0EB7A
:100F50000900642802D90320BDE8F88FDAF8000000
:100F600010F4807FF1D0E068012816D0D0B10528B8
:100F700021D0286A20F001002862286A20F00400AD
:100F80002862E06841F2883A68B3FFF7D7FC8146EF
:100F9000286A10F0020F17D03AE0286A40F00100EA
:100FA0002862EEE7286A20F001002862286A20F013
:100FB00004002862E5E7286A40F004002862286AF5
:100FC00040F001002862DCE7FFF7B8FCA0EB090065
:100FD000504502D90320BDE8F88F286A10F0020FAF
:100FE000F2D015E01AE0FFE7FFF7A8FC8146286A77
:100FF00010F0020F0CD0FFF7A1FCA0EB0900504548
:1010000002D90320BDE8F88F286A10F0020FF2D150
:10101000012E03D1E86920F08050E861E069E8B36F
:10102000696801F00C0108295ED0022810D0C7F8C9
:101030006080FFF783FC0446286810F0007F66D0CC
:10104000FFF77CFC001B022841D90320BDE8F88F84
:10105000C7F86080FFF772FC0646286810F0007F32
:101060000BD0FFF76BFC801B022802D90320BDE8E0
:10107000F88F286810F0007FF3D1206AB0F5803F28
:1010800005D16868A16820F4003008436860616A8F
:10109000206A0843696821F4741100E037E00843CE
:1010A0006860C7F860B0FFF749FC0446286810F094
:1010B000007F2CD1FFF742FC001B022802D903203D
:1010C000BDE8F88F286810F0007FF3D01FE0286893
:1010D00010F0007FB4D11AE000100240000042423C
:1010E000800442420070004001280DD06868226AE6
:1010F00000F48031914204D1616A00F4701088429A
:1011000005D00120BDE8F88F0120BDE8F88F002050
:10111000BDE8F88F401EB0F1807F01D301207047F9
:101120004FF0E0214861044AF020107000208861EF
:10113000072008610020704723ED00E070477047EA
:1011400030B490F83C20012A30D0012480F83C4093
:10115000022280F83D200268D2F804C093682CF087
:10116000700C0D6845EA0C0CC2F804C00268A2F1CC
:10117000804CBCF5963C0CD0B2F1804F09D0A2F166
:10118000804CBCF5806C04D0A2F1804CBCF5006CA6
:1011900004D123F0800349681943916080F83D40F1
:1011A000002180F83C1030BC0020704730BC022089
:1011B000704710B50446002C03D094F83D0010B1E0
:1011C00007E0012010BD002084F83C00204600F01C
:1011D0001FF8022084F83D00211D206800F09EFCCD
:1011E000012084F8460084F83E0084F83F0084F82B
:1011F000400084F8410084F8420084F8430084F8F9
:10120000440084F8450084F83D00002010BD000033
:1012100008B50068B0F1804F12D10A48C16941F0A9
:101220000101C161C069002200F001000090114677
:101230001C20FFF7F1FBBDE808401C20FFF7DEBBD8
:1012400008BD00000010024090F83D10012901D0B7
:1012500001207047022180F83D100068A0F1804114
:10126000B1F5963112D0B0F1804F0FD0A0F180418E
:10127000B1F580610AD0A0F18041B1F5006105D0DF
:10128000016841F00101016000207047816801F0B0
:1012900007010629F8D0016841F001010160F3E778
:1012A00070B5044694F83C00012818D0012584F854
:1012B0003C50022084F83D002068826822F07702CA
:1012C00022F47F4282600868502832D00EDC202849
:1012D0004DD006DC00284AD010284DD147E002202E
:1012E00070BD302843D0402846D136E060282AD04F
:1012F000702806D0B0F5805F3ED0B0F5005F3BD1DE
:101300000BE0CB684A688968206800F043FC2068DD
:10131000816841F0770181602EE0CB684A68896876
:10132000206800F037FC2068816841F480418160CA
:1013300022E0CA684968206800F03FFC502120681C
:1013400000F033FC18E0CA684968206800F048FCE7
:101350006021206800F029FC0EE0CA684968206816
:1013600000F02BFC4021206800F01FFC04E0226804
:101370000146104600F019FC84F83D50002084F826
:101380003C0070BD704770B50446206801694FF09D
:10139000000511F0020F17D0C16811F0020F13D031
:1013A000E91E0161012020772068806910F0030F99
:1013B00003D02046FFF7E6FF05E0204600F09DF849
:1013C000204600F09BF825772068016911F0040F92
:1013D00018D0C16811F0040F14D06FF0040101613E
:1013E000022020772068806910F4407F03D02046D7
:1013F000FFF7C8FF05E0204600F07FF8204600F028
:101400007DF825772068016911F0080F18D0C168B0
:1014100011F0080F14D06FF008010161042020774B
:101420002068C06910F0030F03D02046FFF7AAFF21
:1014300005E0204600F061F8204600F05FF82577CF
:101440002068016911F0100F18D0C16811F0100F59
:1014500014D06FF010010161082020772068C06966
:1014600010F4407F03D02046FFF78CFF05E02046B4
:1014700000F043F8204600F041F825772068016924
:1014800011F0010F09D0C16811F0010F05D06FF004
:1014900001010161204600F032F82068016911F075
:1014A000800F09D0C16811F0800F05D06FF0800166
:1014B00001612046FFF742FE2068016911F0400FEC
:1014C00009D0C16811F0400F05D06FF040010161F3
:1014D000204600F015F82068016911F0200F0BD0AC
:1014E000C16811F0200F07D06FF020010161204684
:1014F000BDE87040FFF723BE70BD7047704770476E
:10150000704738B5044694F83E00202801D00220E8
:1015100038BD71B16AB194F83C0001280BD00120AC
:1015200084F83C002063204600F0ECFC014621B129
:1015300007E0012038BD022038BD206B012802D011
:101540000121084638BD2068026842680092C268DE
:1015500042F01002C260F4E700680349884202D1F9
:101560000249012048617047003801400000002016
:1015700070470000F8B5044622681068D1685369C6
:1015800000F00F0CBCF1000F0AD110F0200F07D0B3
:1015900011F0200F04D02046BDE8F84000F0EEBB6B
:1015A0000025BCF1000F6DD003F0010C01F4907622
:1015B0005CEA060666D010F0010F06D011F4807FB9
:1015C00003D0226C42F00102226410F0040F06D016
:1015D00013F0010F03D0226C42F00202226410F0DB
:1015E000020F06D013F0010F03D0226C42F0040268
:1015F000226410F0080F08D001F0200252EA0C0219
:1016000003D0226C42F008022264226C002A2FD000
:1016100010F0200F05D011F0200F02D0204600F06E
:10162000ADFB20684069C0F38010216C11F0080FF9
:1016300000D110B3204600F073FB2068416911F01F
:10164000400F16D0416921F040014161A06B60B1AB
:1016500047494163A06BFEF7C7FE002808D0A06B86
:10166000416B01B0BDE8F04008472046FFF780FF1E
:10167000F8BD2046FFF77CFFF8BD2046FFF778FF56
:101680002564F8BD236B012B5BD110F0100F58D0EF
:1016900011F0100F55D010685068009050694FF04D
:1016A000200310F0400F2ED0A16B0868406880B274
:1016B0000028E6D0B4F82CC08445E2D9E0858869DA
:1016C000202818D0D06820F48070D060206841694C
:1016D00021F0010141612068416921F0400141612F
:1016E00084F83E3025632068C16821F01001C16094
:1016F000A06BFEF755FEA08DE18D401A81B2204609
:10170000FFF72AFFF8BDA08DE18D401A81B2E08D70
:101710000028F7D00029F5D0D06820F49070D06070
:101720002068426922F00102426184F83E3025635C
:101730002068C26822F01002C2602046FFF70CFF4A
:10174000F8BD10F0800F07D011F0800F04D02046B4
:10175000BDE8F84000F010BC10F0400FF0D011F0E0
:10176000400FEDD02046BDE8F84000F0F1BA00008F
:10177000511C000870B50446002C04D094F83D00BC
:10178000002510B106E0012070BD84F83C502046D1
:1017900000F022F8242084F83D002068C16821F47C
:1017A0000051C160204600F049FB2068016921F426
:1017B000904101612068416921F02A01416120685E
:1017C000C16841F40051C1602564202084F83D00C7
:1017D00084F83E00002070BDF0B585B000240646B8
:1017E000009401940294039400682C49884252D1D9
:1017F0002B48816941F480418161816901F4804114
:101800000491816941F0040181618069254D00F0F6
:10181000040004904FF40070009002200190032017
:10182000039069462846FEF77DFF2815CDE90004A0
:10183000694628460294FEF775FF1C4D1A4880271A
:10184000C5E90004C5E902472C616C61AC6128461A
:10185000EC61FEF7D3FE08B1FEF7A1FDB5636E6241
:101860001148134D143801C5102091C5104845F892
:1018700010496C61AC61EC61FEF7C0FE08B1FEF787
:101880008EFD75630022114625206E62FFF7C4F8B5
:101890002520FFF7B3F805B0F0BD00000038014087
:1018A000001002400008014058000240DC00002007
:1018B00020010020704770472DE9F84304460E468A
:1018C00015461F4694F83D00202802D00220BDE8AE
:1018D000F883C6B1BDB194F83C00012816D00120B0
:1018E00084F83C004FF00009C4F84090212084F8AF
:1018F0003D00FFF723F88046A584E584A068B0F595
:10190000805F06D007E00120BDE8F8830220BDE833
:10191000F883206980B13546002684F83C90E08C3D
:10192000B8B14346002280212046009700F053FBC7
:1019300020B10320BDE8F8830025EEE7A5B12168BA
:10194000287848606D1CE08C401EE084E08C002804
:10195000E7D14346002240212046009700F03BFBA0
:1019600048B10320BDE8F88330882168C0F308003F
:101970004860B61CE7E7202084F83D000020BDE861
:10198000F8837047FEE7000070B586B000241C485D
:101990000094019402940394816941F020018161D3
:1019A000816901F020010491816941F004018161A4
:1019B000816901F004010491816941F008018161AC
:1019C0008069104E00F008004FF40075049000226A
:1019D00029463046FEF7ABFF6810CDE900046946A2
:1019E00030460294FEF79EFE01200095CDE90104E9
:1019F0000220039069463046FEF794FE06B070BDA3
:101A000000100240000C014010B586B000241148BF
:101A1000009401940294039404944FF0804105943F
:101A200001604721C0E901144FF6FF71C0E90314BA
:101A30008461FFF7BEFB4FF4805000906946054873
:101A4000FFF72EFC049404A902480594FFF778FBE5
:101A500006B010BD30000020FEE7000010B50848B9
:101A600008A1C2688261094800F0FAFA074982B207
:101A7000BDE810404FF0FF33A1F15500FFF71CBF48
:101A80000000002025640D0A00000000CD000020A9
:101A90007047704781B007494FF4FA520968B1FBAB
:101AA000F2F14843009000BF0098411E0091FAD225
:101AB00001B070472C0000207047FEF745BF30B5DD
:101AC0008FB028216846FEF734FB14210AA8FEF7E0
:101AD00030FB01210804CDE9001000240294022506
:101AE0000491CDE907504FF4E01009906846FFF7E4
:101AF000FBF80F20CDE90A056802CDE90C40022170
:101B00000AA80E94FEF7CEFF0FB030BD704700005C
:101B10000148FFF738BC00003000002030B40268F4
:101B2000194B1A4CDFF868C0984206D0B0F1804FCC
:101B300003D0A04201D0604503D122F070024D686D
:101B40002A43984206D0B0F1804F03D0A04201D082
:101B5000604505D122F44072D1F80CC04CEA020273
:101B6000D1F814C022F0800242EA0C0202608A68B6
:101B7000C2620A688262984201D109690163012147
:101B8000416130BC70470000002C0140000400405F
:101B900000080040D0F808C02CF47F4C42EA032231
:101BA000114341EA0C0181607047826822F07002A3
:101BB000114341F0070181607047036AD0F820C0EB
:101BC0002CF0010CC0F820C0D0F818C02CF0F00C9C
:101BD0004CEA021223F00A03194382610162704742
:101BE000036A23F010030362D0F818C0036A2CF4D0
:101BF000704C4CEA023223F0A00343EA01118261E7
:101C00000162704710B50B4C094811220AA1E0612E
:101C1000FEF79AFA08B900202061112209A1E069B3
:101C2000FEF792FA002801D10120206110BD0000CA
:101C3000BC0000200000002030303039303030301F
:101C400030313100303030393030303130313100E6
:101C500010B5406A0021C185C184FFF789FC10BD21
:101C600070B5446A20684069C0F3C01094F83D1014
:101C70000025212904D118B1E584204600F075F82B
:101C800020684069C0F3801094F83E10222904D1E6
:101C900018B1E585204600F043F8206C40F01000B4
:101CA00020642046FFF764FC70BD10B50146486A09
:101CB0000968096811F0200F1BD10021C185016856
:101CC000CA6822F48072CA6001684A6922F001027F
:101CD0004A6101684A6922F040024A61202180F885
:101CE0003E10016B012904D10168CA6822F010027C
:101CF000CA60016B012902D0FFF7DCFD10BD818DA8
:101D0000FFF72AFC10BD10B5406A016B012902D013
:101D1000FFF7D1FD10BD818D4908FFF71DFC10BDF7
:101D20000168CA6822F49072CA6001684A6922F0A8
:101D300001024A61016B012904D10168CA6822F0DD
:101D40001002CA60202180F83E1000210163704714
:101D500010B50168CA6822F04002CA60202180F8EC
:101D60003D10FFF70EFE002010BD0168CA6822F08A
:101D7000C002CA60202180F83D10704708B590F875
:101D80003E10222901D0022008BD8268B2F5805F92
:101D900001D1016929B1816AB2F5805F1DD052B1CC
:101DA0000BE0816A02685268C2F308020A80816A05
:101DB000891C816209E002697AB10268526802F006
:101DC0007F020A70816A491C8162C18D491E090423
:101DD000090CC18505D0002008BD026852680A7050
:101DE000F0E70168CA6822F02002CA600168CA6888
:101DF00022F48072CA6001684A6922F001024A61D5
:101E0000202180F83E10016B012903D0FFF752FD1D
:101E1000002008BD002101630168CA6822F0100299
:101E2000CA6001680A6812F0100F02D00A68496897
:101E30000091818DFFF790FBEAE7000070B5044642
:101E400020680169E26821F4405111430161216970
:101E5000A0680843616901432068C26822F40372E4
:101E600022F4A0521143C16020684169A26921F4A3
:101E70004071114341612068A0F18041B1F59C316E
:101E80003AD0FEF7D5FE00EBC00101EB001061680F
:101E90001B4A8900B0FBF1F3A2FB0353B0FBF1FC3A
:101EA0005B096FF018056B430CEB83034FF0320CAA
:101EB0000CEB0313A2FB03535B0903F0F005B0FB2B
:101EC000F1F3A2FB03635B0905EB0313B0FBF1F530
:101ED000B0FBF1F0A2FB001040096FF0180148437D
:101EE00005EB80000CEB0010A2FB00102168C0F392
:101EF00043101844886070BDFEF7AAFEC3E70000D7
:101F00001F85EB5137B582B004461346039AA2628F
:101F1000A38500252564222084F83E00A16B134888
:101F20008862A16B1248C862A16B12480863A06B5B
:101F300045632068011DA06BFEF7A2FB20680168C5
:101F40004168019184F83C50C16841F48071C160DE
:101F50002068416941F0010141612068416941F017
:101F60004001416105B0002030BD0000AB1C0008FD
:101F7000071D0008611C000890F83D10212901D0C0
:101F8000022070478168B1F5805F01D1016961B1BC
:101F9000016A4A1C0262026809785160C18C491EBC
:101FA0000904090CC1840AD013E0016A0268098897
:101FB000C1F308015160016A891C0162EEE7016802
:101FC000CA6822F08002CA600068C16841F040011E
:101FD000C160002070472DE9F0410446069D884607
:101FE00017461E462068006838EA000020D000200E
:101FF000B84227D1B5F1FF3F1CD025B1FEF79EFCBA
:10200000801BA84216D92068C16821F4D071C16034
:102010002068416921F001014161202084F83D00E0
:1020200084F83E00002084F83C000320BDE8F081E5
:102030000120DDE72068006838EA000005D00020B4
:10204000B842D7D00020BDE8F0810120F8E70000B9
:102050000148FFF78FBA000078000020FEE700007B
:102060000FB4084B10B504A902AA039800F01CF89D
:10207000044602A9002000F0B8F9204610BC5DF823
:1020800014FB0000EB23000802E008C8121F08C17F
:10209000002AFAD170477047002001E001C1121FE9
:1020A000002AFBD1704700002DE9FF4F8BB0884616
:1020B0000546002606E025280BD0DDE90D129047E5
:1020C0006D1C761C28780028F5D10FB03046BDE88D
:1020D000F08F0024A146A2460122AE4900E004434D
:1020E00015F8013F203B02FA03F00842F7D12878A7
:1020F0002A2810D06FF02F022878A0F1300109298A
:1021000015D809EB890102EB410144F0020400EB10
:1021100001096D1CF0E758F8041B5FEA010903D5BB
:1021200044F40054C9F1000944F002046D1C2878FD
:102130002E2817D115F8010F44F004042A280ED0D8
:102140006FF02F022878A0F1300109290AD80AEB94
:102150008A0102EB410100EB010A6D1CF2E758F81D
:1021600004AB6D1C28786C280FD006DC4C2817D0E7
:1021700068280DD06A2814D104E0742810D07A2879
:102180000FD10DE044F400140AE044F4801401E09F
:1021900044F440146978814202D104F580146D1C26
:1021A0006D1C2878692865D006DC00288DD063284E
:1021B00027D0642806D15DE06E2808D073282AD085
:1021C000752877D0DDE90D129047761CE0E0C4F366
:1021D0000250022809D003280DD0D8F80010042896
:1021E0000DD00E6008F10408D2E0D8F80010F21704
:1021F000C1E90062F6E7D8F800100E80F2E70E7031
:10220000F0E718F8041B8DF8001000208DF801008D
:10221000EB46012003E058F804BB4FF0FF306107A4
:102220004FF0000701D40AE07F1C57450DDA8742C2
:10223000FADB1BF807100029F6D106E07F1C874265
:10224000FCDB1BF807100029F8D1DDE90D23A9EB11
:1022500007008146214600F0B1F83044C61904E079
:10226000DDE90D121BF8010B90477F1EF8D22146C5
:10227000484688E058F8040BC4F302514FF00A0BAB
:10228000032900D100B2042900D140B2002802DAAB
:1022900040422D2102E0210505D52B218DF8241087
:1022A000012104E006E0E10710D02021F6E708AFA5
:1022B000089113E058F8040BC4F302514FF00A0BD5
:1022C000032900D180B2042900D1C0B20021EEE779
:1022D0005946FDF7DAFF303107F8011D0028F7D124
:1022E000ADEB070000F1200B600702D524F4803429
:1022F00001E04FF0010ADA4502DDAAEB0B0000E035
:102300000020824600EB0B0108980144A9EB010074
:102310000A90E00306D4DDE90D2321460A9800F077
:102320004DF806444FF0000908E009A911F809002A
:10233000DDE90D12904709F10109761C08998945DC
:10234000F3DBE0030CD5DDE90D2321460A9800F00C
:1023500035F8064404E0DDE90D1230209047761C84
:10236000BAF10001AAF1010AF5DC05E0DDE90D1280
:1023700017F8010B9047761CBBF10001ABF1010B84
:10238000F4DC0A982146DDE90D2300F005F8064447
:102390006D1C97E6092801002DE9F041044600254F
:1023A0001E461746880404D405E039462020B0476D
:1023B0006D1C641EF9D52846BDE8F0812DE9F04179
:1023C000044600251E469046C80301D5302700E08C
:1023D0002027880404D505E041463846B0476D1CE7
:1023E000641EF9D52846BDE8F0810A68531C0B60CD
:1023F000107070472DE9F0410024FEF79FFA054662
:102400004FF48076224F07E0FEF798FA401BC82869
:1024100002D90020BDE8F08131463846FEF780FA47
:102420000128F1D0B0463E4600254FF40077012246
:1024300039463046FEF77BFA012000F099F8640037
:10244000002239463046FEF772FA012000F090F87B
:1024500041463046FEF764FA012800D1641C6D1C29
:102460006DB2182DE3DB84F40004012239463046B6
:10247000FEF75DFA012000F07BF800223946304675
:10248000FEF755FA012000F073F82046C2E700007D
:10249000000C014008B5FEF75FFAFFF710FBFFF7ED
:1024A00073FA2E48416941F00101416140690022FF
:1024B00000F00100009011460E20FEF7ADFA0E204C
:1024C000FEF79CFA002211460F20FEF7A5FA0F2016
:1024D000FEF794FAFFF798FA224821490C2201608E
:1024E0004FF4E131416000218160C160C0E9041214
:1024F0008161C161FFF73EF91A484838FEF7A4FE32
:102500000122194D540221462846FEF710FA0A20EE
:10251000FEF7F4F8002221462846FEF708FA0A20C2
:10252000FEF7ECF80F49112244310E48FEF7E9FF9F
:102530000E4C0C49112244310A48FEF7E2FF00F02C
:1025400023F8E0606069012801D1FFF75BFB206997
:102550000128EED1FFF782FAEBE7000000100240FD
:102560000038014078000020000C014000000020ED
:10257000044900220B685A6209684A6A8242FCD305
:10258000704700003000002070B5002532262C4630
:10259000FFF730FF641CA4B20544B442F8DB95FB9E
:1025A000F6F6084CD4E90101FDF70FFE0546206858
:1025B000301AFDF748FE2946FDF7D5FDBDE870400D
:1025C000FDF74ABE000000200000000000000000EF
:1025D00001020304060708090000000001020304C9
:1025E00000260008000000203000000088200008BD
:1025F0003026000830000020380500009820000830
:1026000056D582000092384880C7CD4800000000AF
:1026100000000000000000000000000000000000BA
:102620000100000010000000000000000024F40081
:04000005080000ED02
:00000001FF
