:020000040800F2
:10000000C806002089010008AB100008B50D0008E3
:10001000A91000088F020008151100080000000058
:10002000000000000000000000000000AF10000809
:10003000BD02000800000000AD100008B11000086B
:10004000A3010008A3010008A3010008A301000800
:10005000A3010008A3010008A3010008A3010008F0
:10006000A3010008A3010008A3010008A3010008E0
:10007000A3010008A3010008A3010008A3010008D0
:10008000A3010008A3010008A3010008A3010008C0
:10009000A3010008A3010008A3010008A3010008B0
:1000A000A3010008A3010008A3010008A3010008A0
:1000B000A3010008A3010008A3010008A301000890
:1000C000A3010008A3010008A3010008A301000880
:1000D000A3010008A3010008A3010008A301000870
:1000E000A3010008A3010008A301000800F002F822
:1000F00000F03AF80AA090E8000C82448344AAF188
:100100000107DA4501D100F02FF8AFF2090EBAE885
:100110000F0013F0010F18BFFB1A43F0010318473B
:100120001414000034140000103A24BF78C878C1B9
:10013000FAD8520724BF30C830C144BF04680C60ED
:10014000704700000023002400250026103A28BF35
:1001500078C1FBD8520728BF30C148BF0B60704739
:100160001FB51FBD10B510BD00F058F81146FFF7C0
:10017000F7FF00F0E1FF00F076F803B4FFF7F2FFBD
:1001800003BC00F07DF8000009488047094800479B
:10019000FEE7FEE7FEE7FEE7FEE7FEE7FEE7FEE737
:1001A000FEE7FEE704480549054A064B7047000094
:1001B00013110008ED000008C8000020C806002048
:1001C000C8020020C80200204FF0000200B513460C
:1001D00094469646203922BFA0E80C50A0E80C5067
:1001E000B1F12001BFF4F7AF090728BFA0E80C5018
:1001F00048BF0CC05DF804EB890028BF40F8042B11
:1002000008BF704748BF20F8022B11F0804F18BF7D
:1002100000F8012B7047704770477047754600F033
:100220002BF8AE4605006946534620F00700854688
:1002300018B020B5FFF7B6FFBDE820404FF000062C
:100240004FF000074FF000084FF0000B21F00701BE
:10025000AC46ACE8C009ACE8C009ACE8C009ACE801
:10026000C0098D46704710B50446AFF300802046A4
:10027000BDE81040FFF781BF0048704768000020CC
:1002800001491820ABBEFEE7260002007047FEE7DA
:10029000084810B50649006801F06AF8064900F000
:1002A00089FF01F049F8BDE8104000F0E7BE00000A
:1002B00000F07F4500000020000040407047000033
:1002C0002DE9F84FDFF8B8910024A9F1040B23467B
:1002D0000F2709F1040AABF1040EC9E00125A5407E
:1002E0002A40AA427DD1674ED1F804C0ACEB060883
:1002F000B44532D014DCBCF1030F3AD009DCBCF1B8
:10030000000F2AD0BCF1010F1CD0BCF1020F31D17B
:100310001DE0BCF1110F17D0BCF1120F2AD119E06A
:10032000B8F5881F19D006DCB8F5803F15D0B8F5B0
:10033000801F1FD111E0B8F5001F0ED0B8F5041FC3
:1003400018D10AE0CB6815E0CB681B1D12E0CB6822
:1003500008330FE0CB680C330CE08B682BB1012B1A
:100360004FF0080303D0456104E0042302E0056177
:1003700000E00023FF2A01D8064601E000F1040650
:100380004FEA840501D9A5F12005D6F8008007FAC7
:1003900005FC28EA0C0803FA05F548EA0508C6F842
:1003A00000804D68ED0062D5374DAE6946F001061C
:1003B000AE61AD6924F0030605F001050095334DEB
:1003C00006EB050CDCF80850A607360F07FA06F80E
:1003D00025EA0805DFF8B880404503D14FF0000852
:1003E00017E044E0DFF8AC80404502D14FF001084F
:1003F0000FE0DFF8A480404502D14FF0020808E08A
:10040000DFF89880404502D14FF0030801E04FF03B
:10041000040808FA06F848EA0508CCF808804D6890
:10042000D9F80060ED024D4601D5164300E0964331
:100430002E604D68DAF80060AD02554601D51643CE
:1004400000E096432E604D68DBF80060AD035D462A
:1004500001D5164300E096432E604D68DEF800603B
:10046000ED03754601D5164300E096432E60641CEB
:100470000D682A46E5407FF431AFBDE8F88F0000F3
:10048000080401400000111000100240000001406B
:1004900000080140000C0140001001400014014020
:1004A00001488068704700000400002070B5040017
:1004B00025D094F83D00002520B984F83C50204612
:1004C00000F04EF9242084F83D002068016821F0F6
:1004D000010101602068016841F400410160206869
:1004E000016821F40041016000F08AFA4D4A616818
:1004F000914201D84C4900E04C49884201D2012088
:1005000070BD4B492368B0FBF1F15E6826F03F06F1
:100510000E435E606368934206D94FF49673594365
:100520004FF47A73B1FBF3F12368491C1E6A26F07D
:100530003F06314319626168914210D84900401E5C
:10054000B0FBF1F2521CC2F30B02042A01D20420C8
:1005500022E0B0FBF1F0401CC0F30B001CE0A268ED
:10056000F2B301EBC10303EB0116431EB3FBF6F339
:100570005B1C43F480431B0549D092B301EBC102DD
:1005800002EB0111401EB0FBF1F0401CC0F30B0068
:1005900040F4804040F400402168CA694CF6FF7383
:1005A0009A431043C861D4E90710014320680268E8
:1005B00022F0C00211430160D4E903010143206825
:1005C000826848F2FF339A4311438160D4E9050100
:1005D00008432168CA6822F0FF021043C86001E0A6
:1005E0000EE016E02068016841F001010160256419
:1005F000202084F83D00256384F83E50002070BD23
:1006000001EB4106431EB3FBF6F35B1CB3E701208D
:10061000C2E701EB4101401EB0FBF1F0401CC0F30A
:100620000B00B7E7A086010080841E0000093D0092
:1006300040420F002DE9F84F1F4690468A46044677
:10064000DDF82890FFF72CFF054694F83D002028A0
:100650007FD11923012240492046009500F03CFC3F
:10066000002876D194F83C00012872D0012084F84B
:100670003C0020680168C90703D1016841F001010D
:1006800001602068016821F400610160212084F884
:100690003D00102084F83E0000262664C4F8248023
:1006A0006785608D20852D48E0622B464A4651467D
:1006B000204600F097FB90B920684169806900905E
:1006C00036E02A464946204600F0ACFC50B1206C8A
:1006D000042804D12068016841F400710160012000
:1006E000BDE8F88F606A216800780861606A401C84
:1006F0006062618D491E6185218D491E89B2218507
:1007000022685369DB435B070BD451B10078106159
:10071000606A401C6062608D401E6085208D401EB6
:1007200020852A464946204600F0AAFB0028CED163
:10073000208D0028C5D154F83D0B016841F40071AB
:100740000160202004F81E09E67766770020C7E7DD
:10075000FFE70220C4E70000020010000000FFFFD6
:1007600010B586B0002100910191029103910068BB
:10077000104988421BD1104CA06940F00800A061CC
:10078000A069694600F0080004904FF440600090B2
:1007900012200190032003900848FFF791FDE069C3
:1007A00040F48000E061E06900F48000049006B04D
:1007B00010BD00000058004000100240000C014035
:1007C000024881680278114481607047040000206B
:1007D000074810B5016841F010010160032000F0E6
:1007E00067F80F2000F006F800F024F8002010BD94
:1007F0000020024070B50D4D04464FF47A71287800
:10080000B1FBF0F00A490968B1FBF0F000F0BEFA64
:1008100048B9102C07D200222146501E00F028F8BB
:1008200000206C6070BD012070BD0000040000203D
:10083000100000200C4808B5816941F00101816178
:10084000816901F001010091C16941F08051C161EC
:10085000C06900F0805000900448416821F0E061D8
:1008600041F00071416008BD0010024000000140ED
:10087000F0B40E4B1B680C46C3F30223C3F107050B
:10088000042D00D90425191D072901D2002300E0F9
:10089000DB1E012606FA05F1491E214099409E40C3
:1008A000761E16403143F0BC00F035BC0CED00E084
:1008B000064900F0070208684FF6FF03184040EAB7
:1008C0000220034A10430860704700000CED00E06E
:1008D0000000FA052DE9F0470F46050061D0434EB0
:1008E000306800F00700B84209D2306820F00700F5
:1008F00038433060306800F00700B84251D12868B2
:100900003B4C810712D5400703D5606840F4E06096
:1009100060602878000703D5606840F4605060602C
:100920006068A96820F0F000084360602878C0077C
:1009300028D06868012810D02168022810D08907C3
:1009400000292EDA616821F0030101436160FFF79D
:10095000A7FD804641F288390DE021688903EFE761
:100960008901EDE7FFF79CFDA0EB0801494502D99D
:100970000320BDE8F0876068696800F00C00B0EB08
:10098000810FEFD1306800F00700B8420BD9306812
:1009900020F0070038433060306800F00700B842AC
:1009A00001D00120E5E72878400705D56068E968AF
:1009B00020F4E060084360602878000706D560688E
:1009C000296920F4605040EAC100606000F028F816
:1009D0006168084AC1F30311515CC84006490860C8
:1009E00006480068FFF706FF0020C2E7002002402B
:1009F000001002401A150008100000200800002016
:100A00000448054900684968044AC1F30221515C61
:100A1000C840704710000020001002402A1500084E
:100A20000E4A51680E4801F00C03042B11D0082B1C
:100A30000FD10C48C1F38343C903C05C0AD5516888
:100A4000084AC1F34041921E515C054A5043B0FB35
:100A5000F1F070470449484370470000001002401D
:100A600000127A000A15000800093D002DE9F84F30
:100A7000040070D02078C04DC00749D06868C0F32A
:100A80008100012807D06868C0F38100022809D1DD
:100A90006868C00306D52868800339D560680028D7
:100AA000E7D035E06068B0F5803F0BD010B1B0F50D
:100AB000A02F11D0286820F480302860286820F406
:100AC000802002E0286840F480302860606890B19F
:100AD000FFF7E6FC06460AE0286840F4802028601C
:100AE000F0E700BFFFF7DCFC801B642873D82868A0
:100AF0008003F7D50CE0FFF7D3FC064605E000BF06
:100B0000FFF7CEFC801B6428F0D828688003F7D458
:100B100020789A4E80074FF001094FF0000839D530
:100B2000686810F00C0F07D06868C0F381000228D5
:100B300009D16868C00306D42868800714D52069E5
:100B4000012808D110E02069B0B1C6F80090FFF785
:100B5000A7FC074605E00AE1FFF7A2FCC01B02283C
:100B6000C4D828688007F7D52868616920F0F800A4
:100B700040EAC10028600DE0C6F80080FFF790FC55
:100B8000074604E0FFF78CFCC01B022823D8286826
:100B90008007F7D4207800072CD57948A169D9B10E
:100BA000C0F80090FFF77CFC074604E0FFF778FCF4
:100BB000C01B02280FD8686A8007F7D571484FF428
:100BC000FA510068B0FBF1F0009000BF0098411EA0
:100BD0000091FAD20EE080E0C0F80080FFF760FCE0
:100BE000074604E0FFF75CFCC01B022875D8686A62
:100BF0008007F7D42078400760D5E8690027C00057
:100C000008D4E86940F08050E861E869012700F005
:100C1000805000905C480168C90513D40168834680
:100C200041F480710160FFF73BFC824606E000BFA3
:100C3000FFF736FCA0EB0A0064284ED8DBF8000072
:100C4000C005F5D5E06801280AD008B1052813D001
:100C5000286A20F001002862286A20F0040002E0DF
:100C6000286A40F001002862E06841F2883B98B1B0
:100C7000FFF716FC82460BE0286A40F00400286269
:100C8000EEE700BFFFF70CFCA0EB0A0159455AD86C
:100C9000286A8007F6D50CE0FFF702FC824605E0E3
:100CA000FFF7FEFBA0EB0A0159454CD8286A8007E4
:100CB000F6D41FB1E86920F08050E861E06988B39C
:100CC0006968C1F38101022944D00228C6F8608016
:100CD00004D0FFF7E5FB044638E034E0FFF7E0FB23
:100CE000074604E0FFF7DCFBC01B02282BD828686E
:100CF0008001F7D4206AB0F5803F05D16868A1680B
:100D000020F4003008436860D4E9080108436968AA
:100D100021F4741108436860C6F86090FFF7C0FBC7
:100D2000044606E025E000BFFFF7BAFB001B0228DF
:100D300009D828688001F7D51BE000BFFFF7B0FB9A
:100D4000001B022802D90320BDE8F88F2868800123
:100D5000F4D40EE00128F7D06868226A00F48031EC
:100D6000914204D1616A00F47010884201D00120E0
:100D7000EAE70020E8E700000010024000004242DD
:100D800080044242100000200070004010B5401E58
:100D9000B0F1807F01D3012010BD4FF0E0246061ED
:100DA0000F21601700F0B7F90020A0610720206133
:100DB000002010BDFEE701684A69D24352050FD4F6
:100DC0006FF480624A61002140F8301F2022427394
:100DD0008173026942F004020261017301207047CD
:100DE00000207047F8B50446C06A1E460D461746F7
:100DF000082807D0012805D010F5803F02D0206BCD
:100E0000122804D12068016841F480710160134602
:100E100000224FF001112046009600F05DF840B12D
:100E200020680068C00502D54FF4007020640320DC
:100E3000F8BD2069B0F5804F0ED00620216800EA89
:100E4000D51040F0F000086133463A460B49204681
:100E500000F08AF878B902E005F0FE0000E0E8B2A0
:100E600021680861054933463A46891F204600F04B
:100E70007BF80028DCD00120F8BD0000080001004C
:100E800070B516460D4604461EE02046FFF793FF58
:100E900008B1012070BD681C16D0FFF701FB801B54
:100EA000A84200D885B920684069C04340070BD5E7
:100EB000002044F8300F20216173A073216941F0B4
:100EC000200121612073E4E720684069C0434007A6
:100ED000DBD4002070BD00002DE9F047984617468E
:100EE0000D460446C1F30746DDF820902AE000BF16
:100EF000B8F1FF3F26D0FFF7D3FAA0EB0901414537
:100F000002D8B8F1000F1DD12068012E16D08069DB
:100F100025EA00000004000C12D00020B84211D1D4
:100F2000002044F8300F20216173A073216941F043
:100F30002001216120730120BDE8F0874069E7E7C7
:100F40000120EBE72068012E0AD0806925EA000025
:100F50000004000C06D00020B842C9D00020EBE706
:100F60004069F3E70120F7E72DE9F0479846164678
:100F70000D4604464FF000094FF0200AC1F3074721
:100F800023E020684069C043400515D4206801680B
:100F900041F40071016021686FF480604861C4F819
:100FA000309084F83DA084F83E90216C41F004011B
:100FB000216484F83C9021E0701C06D0FFF770FAA1
:100FC000A0EB0800B04203D816B1012F1FD021E0DA
:100FD0002068012F15D0806925EA00000004000C6C
:100FE00018D000BF44F8309F84F80DA084F80E900C
:100FF000216941F02001216184F80C900120BDE8B5
:10100000F087406925EA00000004000CEAD120685E
:10101000406901E02068806925EA00000004000CB6
:10102000AFD1ECE770B516460D4604461EE02046EB
:10103000FFF7C1FE08B1012070BD681C16D0FFF794
:101040002FFA801BA84200D885B920684069C043A8
:1010500000060BD5002044F8300F20216173A073E7
:10106000216941F0200121612073E4E72068406993
:10107000C0430006DBD4002070BD00001CB5402139
:101080008DF8041001098DF8051000018DF8060097
:101090004FF0FF300090032301AAC0210148FFF761
:1010A000C9FA1CBD14000020FEE7FEE77047704738
:1010B000FFF786BB30B58FB028216846FFF784F86C
:1010C00014210AA8FFF780F801210804CDE90010D7
:1010D0000024029402250491CDE907504FF4E0105A
:1010E00009906846FFF7C2FC08B172B6FEE70F2010
:1010F000CDE90A054FF48060CDE90C4002210AA831
:101100000E94FFF7E7FB002801D072B6FEE70FB0A0
:1011100030BD7047FEE70907090E002804DB00F127
:10112000E02080F80014704700F00F0000F1E0208C
:1011300080F8141D7047000008B5FFF749FBFFF762
:10114000B9FF1848816941F020018161816901F08E
:1011500020010091816941F008018161816901F0FC
:1011600008010091816941F00401816180690E49A3
:1011700000F0040000900D484FF4804201600C49DB
:10118000416000218160C0E9031241618161C16158
:101190000162FFF78BF908B172B6FEE7FFF778F846
:1011A000FCE700000010024000580040140000203E
:1011B000801A06004FF47F0C1CEAD0121EBF1CEAF6
:1011C000D11392EA0C0F93EA0C0F00F0858090EA9D
:1011D000010F48BF42F4807240F4000C41F400005B
:1011E0002CF07F4120F07F4000B58142A2EB03024A
:1011F0000FF2081CACEB504EC0F100009EF800E06E
:101200004FEA4E0E00FB0EFC38BF49004FEA2C1C83
:1012100002F5FA020CFB0EF34FEACE1E4FEA112C38
:101220004FEAC1210EEB635E42EB22420EFB0CFC47
:101230004FEA1C5300FB03114FEA112C4FEA013116
:101240000EFB0CFC4FEADC4C00FB0C11C14228BF2A
:1012500009184CEB03335DF804EB10EB410143EB51
:10126000C250B2F57C0F38BF704729D512F0F00F8D
:101270001CBF00F1C04000F0004070470081828335
:101280008485868788898B8C8D8E8F919293959695
:1012900097999A9C9D9FA0A2A3A5A7A8AAACAEB01F
:1012A000B2B3B5B7B9BCBEC0C2C5C7C9CCCED1D424
:1012B000D7D9DCDFE2E6E9ECF0F3F7FAFE00000054
:1012C0004FEA400C0CF1807CBCF17E4F28BF704788
:1012D000B0F1C04000F013B990EA010F0CEAD1134D
:1012E00048BF42F48072624538BF634507D213F4A9
:1012F0007F0F16D080EA010000F00040704710B563
:1013000000F0B7F8097EFC3E00F005B880EA010065
:1013100000F00040704780EA010000F0004000F05B
:10132000EEB812F47F0F04BF0248704780EA010054
:1013300000F0E5B80000C07F41000B0ED3F19E0223
:1013400008D950F400034FEA032323FA02F048BF00
:101350004042704710B500F08CF800BF49922480DD
:10136000002070476FF0004282EA200070470000C2
:101370004FF47F0C1CEAD0121EBF1CEAD11392EA74
:101380000C0F93EA0C0F00F0478090EA010F48BF62
:1013900042F480724FF0004C4CEA00204CEA0121EC
:1013A00002EB0302A0FB0113A2F50002002918BF03
:1013B00043F001035B0028BF4FEA330342EB2242B4
:1013C0005FEA132C4CEBC2502EBFBCEB436FB2F55F
:1013D0007C0F70474FEA036CBCF1004F08BF20F050
:1013E0000100B2F57C0F38BF70470BD582F0FF02C9
:1013F00012F5803FC8BF704700F1C040D8BF00F071
:101400000040704700F5000C5FEA4C0C48BF704785
:10141000B0F1C04000F073B890EA010F0CEAD113AC
:1014200048BF42F48072624538BF634504D280EA07
:10143000010000F00040704710B500F01AF800BF3E
:101440008900013E00F007B800F009B85FEA410CDE
:101450005FEA1C6C08D080EA010000F050B85FEA37
:10146000400C5FEA1C6CF6D14FF00040A0F5800004
:1014700070470EF1020E2EF0030E5EF8044B24426C
:1014800004D44FEA4102B2F17F4F11D84FEA400332
:10149000B3F17F4F0CD80ED14FEAD07CB2F17F4F21
:1014A0000CEB4C0C0CF1020C08BF4CEBD17C04E0B3
:1014B0004FF0080C01E04FEAD17C0CEB4C0324FA0E
:1014C00003F404F00704B4F1040C06D20EEB840C10
:1014D000BDE810404CF0010C6047DFE80CF0070855
:1014E00002024FF00040A0F5800010BD0846420007
:1014F00018BFD2F1807288BF00F0004010BDFF21FC
:1015000041EAD050C00570470102020304050607F6
:1015100008090A0B0C0D0E0F10100000000000004F
:101520000000010203040607080900000000010290
:1015300003040000541500080000002014000000FF
:10154000280100086815000814000020B4060000F7
:10155000440100080000000001000000100000002D
:081560000000000000127A00F7
:04000005080000ED02
:00000001FF
