:020000040800F2
:10000000A8090020A5010008AB3800080B30000843
:10001000A9380008390A000801460008000000005D
:10002000000000000000000000000000993B0008F4
:10003000070D000800000000AD3800089B3B0008D9
:10004000BF010008BF010008BF010008BF01000890
:10005000BF010008BF010008490D0008BF010008EA
:10006000BF010008BF010008BF010008BF01000870
:10007000BF010008BF010008C50C0008D10C000832
:10008000BF010008BF010008BF010008BF01000850
:10009000BF010008BF010008BF010008BF01000840
:1000A000BF010008BF010008BF010008BF01000830
:1000B000153C0008213C0008BF010008BF010008F2
:1000C000BF010008BF010008BF010008BF01000810
:1000D000BF010008F5450008BF010008BF01000886
:1000E000BF010008BF010008BF01000800F002F8CE
:1000F00000F048F80AA090E8000C82448344AAF17A
:100100000107DA4501D100F03DF8AFF2090EBAE877
:100110000F0013F0010F18BFFB1A43F0010318473B
:10012000C4530000E4530000103A24BF78C878C1DB
:10013000FAD8520724BF30C830C144BF04680C60ED
:10014000704700000023002400250026103A28BF35
:1001500078C1FBD8520728BF30C148BF0B60704739
:10016000642900F08980002070471FB500F0E6FA8E
:1001700004000020002104F02BFB401C60601FBD28
:1001800010B510BD00F0B5FA1146FFF7EEFF04F010
:1001900049FA00F0E5FA03B4FFF7F2FF03BC00F000
:1001A00029FB00000948804709480047FEE7FEE7B1
:1001B000FEE7FEE7FEE7FEE7FEE7FEE7FEE7FEE717
:1001C00004480549054A064B70470000113C0008E9
:1001D000ED000008A8030020A8090020A8050020C1
:1001E000A80500200FB41CB5084B06AA7B4469463D
:1001F0000090059800F0D1F904460020694600F00F
:10020000DFF920461CBC5DF814FB0000D1030000A0
:100210002DE9F0410E460446002020622046E168A8
:10022000884730B3252805D0D4E901219047206ABA
:10023000401CF2E7E168204600278847050018D0F7
:10024000A5F14100192802D820354FF40067324645
:10025000294620462760FFF783FF40B1012804D0DC
:10026000F61D26F007060836D8E7361DD6E72846DD
:10027000DAE7206ABDE8F0812DE9F0410646002466
:1002800010687529314616A510D0AFF300800028FC
:1002900002DA404213A507E031688A0701D512A5AA
:1002A00002E0490704D511A5012401E0AFF3008065
:1002B00000210A2206F1240709E0B0FBF2FCB0FBA2
:1002C000F2F302FB1C00303078541846491C002819
:1002D000F3D123462A463046BDE8F04100F0FEB88F
:1002E000000000002D0000002B0000002000000096
:1002F00070B5064600F0EEF80468054630460A225E
:10030000002100F062F92C6070BD40EA010310B5D5
:100310009B070FD1042A0DD310C808C9121F9C4295
:10032000F8D020BA19BA884201D9012010BD4FF087
:10033000FF3010BD1AB1D30703D0521C07E00020D4
:1003400010BD10F8013B11F8014B1B1B07D110F831
:10035000013B11F8014B1B1B01D1921EF1D1184634
:1003600010BD40EA0103024630B59B0710D14FF0A3
:10037000013400E008C208C91D1B9D4315EAC41FD3
:10038000F8D013F0FF0102F8011B0DD01B0AF8E7AB
:1003900011F8013B002B02F8013B05D011F8013B9D
:1003A000002B02F8013BF3D130BD10B5431C02E035
:1003B00010F8011B71B18107FAD14FF0013202C868
:1003C0008C1A8C4314EAC211F9D0C01A0A0603D061
:1003D000C01E10BDC01A10BD0A0401D0801E10BD81
:1003E0000902FCD0401E10BD40EA010370B59B0716
:1003F0002ED14FF00136042A2AD308C810C99D1BFC
:100400009D43121F15EAC61517D0D8B2E1B2401AA3
:1004100050EA056110D198B2A1B2401A50EA0541E4
:100420000AD123F07F4024F07F41401A50EA052191
:1004300002D1180EA0EB146070BDA342DBD018BA35
:1004400021BA884201D9012070BD4FF0FF3070BD44
:100450000AB9002070BD10F8013B11F8014B63B1DF
:10046000A3420AD1521E08D010F8013B11F8014BEB
:100470001BB1A34201D1521EEDD1181B70BD4FF02C
:10048000000200B5134694469646203922BFA0E8E4
:100490000C50A0E80C50B1F12001BFF4F7AF0907F0
:1004A00028BFA0E80C5048BF0CC05DF804EB8900E1
:1004B00028BF40F8042B08BF704748BF20F8022B24
:1004C00011F0804F18BF00F8012B7047704770473C
:1004D0007047000000487047480300202DE9F047AE
:1004E0000D4699469246044600F1240801688806A4
:1004F00004D5E06921F01001216000E00120A8424C
:1005000001DD471B00E00027A1697A1902EB090011
:10051000081AA0612078C00602D42046AFF30080FC
:10052000002608E0D4E901211AF806009047206A65
:10053000401C761C20624E45F4DB2078C0060AD5AC
:100540002046AFF3008006E0D4E901213020904737
:10055000206A401C2062381EA7F10107F4DC07E086
:10056000D4E9012118F805009047206A401C206258
:10057000281EA5F10105F3DC2046AFF300802078AA
:10058000000602D50220BDE8F0870120FBE700004D
:1005900001694A1C02610878704700B58FB0CDE947
:1005A00001310021059105497944CDE90310114637
:1005B0006846FFF72DFE0FB000BD0000E5FFFFFF0E
:1005C0000A6802F8010B0A6070472DE9F04791466E
:1005D0000F4680460446002614F8015B2DB100F05A
:1005E00031F80068405DC007F6D12B2D02D02D2DCB
:1005F00018D0641E4A463946204600F02BF827B131
:100600003968A14201D1C7F800804FF0020471059A
:100610000BD54042002803DDFFF75CFF0460A00714
:10062000BDE8F08746F48066E4E70028F8DAFFF7D3
:1006300051FF04606FF00040F2E70000004870478F
:100640004803002010B500F079F8001D10BD00BF70
:10065000814100002DE9F05F824615468B46002758
:100660000AF10104B9460078302801D09DB113E0A9
:1006700014F8010B0127782803D0582801D045B180
:100680000AE00DB1102D07D1002714F8010B102539
:1006900002E0082500E00A250026B0460EE005FB32
:1006A000080005FB06F101271FFA80F801EB104650
:1006B000B6F5803F00D3B94614F8010B294600F087
:1006C00041F80028EBDABBF1000F05D00FB1641E32
:1006D00000E05446CBF80040B9F1000F06D0FFF718
:1006E000F9FE02210160C81EBDE8F09F48EA0640FD
:1006F000FAE77546FFF7A2FFAE4605006946534686
:1007000020F00700854618B020B5FFF759FDBDE879
:1007100020404FF000064FF000074FF000084FF068
:10072000000B21F00701AC46ACE8C009ACE8C009F9
:10073000ACE8C009ACE8C0098D4670470048704776
:10074000680300203A2800D2303820F02002412AE5
:1007500001D3A2F13700884201D34FF0FF30704738
:1007600010B50446AFF300802046BDE81040FFF707
:1007700012BD00004FF0013C50F8042B51F8043B2F
:100780009A4221D1A2EB0C03934313EACC1317D165
:1007900050F8042B51F8043B9A4215D1A2EB0C03FC
:1007A000934313EACC130BD150F8042B51F8043BBC
:1007B0009A4209D1A2EB0C03934313EACC13DBD08A
:1007C0004FF00000704700BFD01A01BAB1FA81F1B2
:1007D00001F0180122FA01F0CB40C1F12001DBB297
:1007E000C0B2C01A2CFA01F3D11A914311EAC31115
:1007F000E6D1704701491820ABBEFEE72600020093
:100800007047000070B5044600688168C943C90795
:1008100017D1816821F00101816000F029FF0546B0
:100820000AE000BF00F024FF401B022804D9206822
:100830008068C043C00706D020688068C043C007F6
:10084000F0D0002070BDA06A40F01000A062E06A05
:1008500040F00100E062012070BD0000F8B5002604
:100860000446009600688168C943C9072DD0816895
:1008700041F001018160164816490068B0FBF1F0B3
:1008800000E0401E00900028FBD100F0F1FE05467C
:1008900016E000BF00F0ECFE401B022810D92068D3
:1008A0008068C043C0070BD0A06A40F01000A0626F
:1008B000E06A40F00100E06284F824600120F8BDA5
:1008C00020688068C043C007E4D10020F8BD000064
:1008D0007C00002040420F0070B52F4C0021A17118
:1008E0002079A27B024300D121754FF0FF3558B328
:1008F000012829D1A078012801D010B10FE027A14B
:1009000000E029A12C48FFF72CFD2B48FFF74DFDF7
:10091000294982B22B46A1F1590002F025FBE0786B
:10092000012801D010B10FE024A100E026A1224847
:10093000FFF717FD2048FFF738FD1F4982B22B460D
:10094000A1F1590002F010FBA07B002823D0012860
:1009500021D1A07A012818D0E07A012817D0207B75
:10096000012816D0607B012815D11BA11248FFF782
:10097000F8FC1148FFF719FD2B46BDE870400E4901
:1009800082B2A1F1590002F0EFBA19A1EEE71EA15F
:10099000ECE723A1EAE770BD000000204C454420AD
:1009A00031204F6E200D0A004C45442031204F6607
:1009B00066200D0A00000000890200204C454420FA
:1009C00032204F6E200D0A004C45442032204F66E5
:1009D00066200D0A000000004D6F746F7220706F6A
:1009E000736974696F6E3A20333630200D0A000047
:1009F0004D6F746F7220706F736974696F6E3A20F7
:100A00003435200D0A0000004D6F746F7220706F36
:100A1000736974696F6E3A203930200D0A00000046
:100A20004D6F746F7220706F736974696F6E3A20C6
:100A3000313830200D0A0000FEE700002DE9F041BA
:100A4000204C00252049A574206D0840012837D18D
:100A5000627A1E491E484FF07C56012A07D1E26C8B
:100A6000521CE264C4E90C60C4E90A516572A27ABE
:100A7000012A05D1C4E90C60164AC4E90A21A5720D
:100A8000E27A012A05D1C4E90C60134AC4E90A21BB
:100A9000E572217B114F012905D1C4E90C60104991
:100AA000C4E90A172573607B012809D10D49A06AA2
:100AB00004F02CFAC4E90A070B48C4E90C6065731A
:100AC000BDE8F0810000002001000080000020410E
:100AD000CDCCCC3D0000E041000060420000A041D0
:100AE0000000E042000060430AD7233C2DE9F041BA
:100AF000184C112214A1E06BFFF776FC08B9002016
:100B0000E075154EF079303804F0AAF80022134B46
:100B100003F04EFF0546B0790F46303804F0A0F8D8
:100B20002A463B4603F09CFE03F068FE0C49A06594
:100B300004F078FB0B4904F04BFA04F00BFBBDE822
:100B4000F04102F017BD0000303030363030303028
:100B500030313100000000207802002000002440E5
:100B600000F07F450000404010B5094C00220421F0
:100B7000204600F078FD01220821204600F073FD98
:100B800020460122BDE81040110200F06CBD0000BB
:100B90000008014070B51D4C00256575E07B0128FB
:100BA0000CD0002809D11A4801F02CFD1848002269
:100BB0001146483800F0CEF8256470BD144801F0A5
:100BC0004DFD13480021483801F024FF207C012806
:100BD00018D0FFF7C9FF0E48603030F87D1FE18361
:100BE000807884F8200009481E30FFF781FB60649C
:100BF00004F0ECFA0246BDE8704005480021483890
:100C000000F0A8B800F032F8EDE700000000002086
:100C1000A001002010B5134CE06EB0F5000F06DB0C
:100C2000FFF7A2FF00211048E26E00F093F8E06E9B
:100C300010F1FF4F08D300F019F8E06E002180F0AA
:100C40000042094800F086F8E06E10F0FF4F08D12E
:100C500000F022F8E26EBDE810400021024800F0EA
:100C600079B810BD000000205801002010B5094CD3
:100C700001220421204600F0F6FC00220821204633
:100C800000F0F1FC20460122BDE81040110200F006
:100C9000EABC00000008014010B5094C0022042104
:100CA000204600F0E0FC00220821204600F0DBFC9A
:100CB0000022A1152046BDE8104000F0D4BC000081
:100CC00000080140014800F099BA00000403002028
:100CD000014800F093BA0000C002002030B590F83F
:100CE00040500124AC40C56B6C600468636043688D
:100CF000102B036803D099600068C26030BD9A6011
:100D00000068C16030BD7047FEB50D480021817597
:100D10004079012813D10A4F0024012564261C378D
:100D200038198DE86100A2B20223A021054800F025
:100D30002DFF052000F072FB641C022CF0DDFEBDCF
:100D400000000020B0000020012000F08BBB72B634
:100D5000FEE7000070B5006816460D46C06A04F054
:100D60004DFA04461049304604F032F9214604F0A9
:100D700059FA0E490C6845B1042D0BD0082D0ED040
:100D800004F004FA80B2206470BD04F0FFF980B270
:100D9000606370BD04F0FAF980B2A06370BD04F026
:100DA000F5F980B2E06370BD0000C8425801002030
:100DB000F8B50024009490F824202546012A12D08A
:100DC000012280F824204A681F23072A0DD20668D2
:100DD000776B521E02EB820293409F430B68934055
:100DE0001F43776319E00220F8BD06680D2A0AD276
:100DF000376BD21F02EB820293409F430B689340F4
:100E00001F43376309E0F76A0D3A02EB8202934011
:100E10009F430B6893401F43F7620A6807230668E5
:100E20000A2A0AD3F7680A3A02EB420293409F4328
:100E30008B6893401F43F76008E0376902EB42027A
:100E400093409F438B6893401F4337610A68102A81
:100E500001D0112A20D1124B02689A4217D193680F
:100E60001B0219D4936843F40003936009681029A6
:100E700012D10C490C4A0968B1FBF2F101EB810176
:100E8000490000E0491E00910029FBD104E0816A7D
:100E900041F020018162012480F824502046F8BDF1
:100EA000002401407C00002040420F000068C06C1C
:100EB000704700002DE9F0414FF0000704003D4667
:100EC0007ED0A06A002628B9E66284F82460204615
:100ED00000F07EF82046FFF795FCA16AC90600D411
:100EE00020B1A06A40F01000A06269E0A16A21F47C
:100EF000885141F00201A1626268E169237B0A43E3
:100F000047EA43010A43A1684FF48077B94209D008
:100F1000012907D05FF0000194F814C0BCF1010F63
:100F200002D00AE03946F7E7F3B1A36A43F02003A1
:100F3000A362E36A43F00103E3622368D3F804C0C9
:100F40002CF4694C4CEA010CC3F804C021688B688E
:100F5000DFF870C003EA0C0313438B60A168B94249
:100F60000BD0012909D00CE0DFF85CC0A3690CEBC1
:100F700043330B4343F40061DFE7218A0D05A5F5F8
:100F800080152168CB6A23F470032B43CB62216860
:100F900089680E4B1940914208D1E662A16A21F09E
:100FA000020141F00101A162BDE8F081A06A20F0D8
:100FB000020040F01000A062E06A40F00100E06230
:100FC0000120F1E7FDF7E1FF00E0FFFFFE0E1FFF4C
:100FD00000B585B000210091019102910391006854
:100FE0000E49884218D10E48816941F4007181612F
:100FF000816901F400710491816941F00801816106
:101000008069694600F008000490022000900320E7
:101010000190044800F032FA05B000BD0024014000
:1010200000100240000C014070B5044690F8240006
:1010300001280DD0012084F824002046FFF70EFC83
:1010400002004FF0000005D084F82400104670BD67
:10105000022070BDA16A40F20123994341F48071DE
:10106000A1621F4D23681F49AB4218D10E6816F4C8
:10107000702F14D0A66A46F48016A6620E68760514
:1010800005D5A66A26F4005646F48056A662A66ADE
:10109000F6040AD5E66A26F00606E66206E0A66AC7
:1010A00026F48016A6625E68E9E7E06284F8240010
:1010B0006FF00200186020688368C3F34243072B77
:1010C00005D1A84208D1096811F4702F04D08168B5
:1010D00041F480118160B9E7816841F4A001F9E72A
:1010E000002801400424014010B5044690F8240073
:1010F000012807D0012084F824002046FFF782FB56
:1011000010B107E0022010BDA16A21F4885141F01E
:101110000101A162002184F8241010BD10B590F8DF
:1011200021100022022905D00421816380F82020AB
:10113000012010BD01680B6823F00E030B600168ED
:101140000B6823F001030B6090F84030C46B012161
:1011500001FA03F3636080F8211080F82020104624
:1011600010BD000010B590F821100024022903D012
:101170000421816301243DE001680A6822F00E0227
:101180000A6001680A6822F001020A601A4A0168CE
:10119000914201D1012121E0174A1432914201D13B
:1011A00010211BE0144A2832914201D1891515E023
:1011B000114A3C32914201D189140FE00E4A50325B
:1011C000914202D14FF4803108E00B4A64329142DF
:1011D00002D14FF4801101E04FF08071064A083AC5
:1011E0005160012180F82110002180F82010416B0E
:1011F00001B18847204610BD080002402DE9F05F8C
:10120000C16B0C6801680B68D0F840C0042202FA78
:101210000CF2494DDFF824A1494E4A4FDFF828B1BE
:10122000DFF828E122422CD05A072AD50A68920614
:1012300003D40A6822F004020A600168A94201D1BD
:10124000042219E0514501D1402215E0B14202D1FA
:101250004FF4806210E0B94202D14FF480420BE0BB
:10126000594502D14FF4802206E0714502D14FF476
:10127000800201E04FF080622F4908394A60C16A5C
:101280003BE04FF0020808FA0CF818EA040F4FF0A0
:1012900000094FF0010235D05FEA837832D50B6840
:1012A0009B0605D40B6823F00A030B6080F821200D
:1012B0000168A94201D1022219E0514501D1202241
:1012C00015E0B14202D14FF4007210E0B94202D1F0
:1012D0004FF400520BE0594502D14FF4003206E0C2
:1012E000714502D14FF4001201E04FF00072124933
:1012F00008394A6080F82090816A00291AD0BDE838
:10130000F05F0847082505FA0CF5254212D01B07A7
:1013100010D50B6823F00E030B6090F84010C36BE0
:1013200002FA01F15960826380F8212080F8209050
:10133000016BE2E7BDE8F09F080002401C0002409C
:101340003000024044000240580002406C0002405D
:1013500030B528B308C8134914221944B1FBF2F17F
:101360008900C16310498163022141771A6843F6FD
:10137000F0718A43D0E900142143D0E902452C439F
:101380002143046921434469214384692143114372
:10139000196000214163012242770177084630BD80
:1013A000012030BDF8FFFDBF0000024070B50446CB
:1013B00090F82000002501280CD0012084F820009E
:1013C00094F821600020012E06D084F82000022528
:1013D000284670BD022070BD022684F82160A063FB
:1013E0002068066826F0010606602046FFF776FCB6
:1013F000E06A00282068016802D041F00E0106E092
:1014000021F0040101602068016841F00A010160D7
:101410002068016841F001010160D9E770B5044618
:1014200000F026F90546601C02D004480078044408
:1014300000F01EF9401BA042FAD370BD70000020DE
:1014400010B50221054800F009F905490028086C8B
:1014500002D0401E086410BD401CFBE7000801409C
:1014600000000020044910B50A68024202D008605A
:10147000FFF7E6FF10BD0000140401402DE9F84F0E
:10148000DFF8B8910024A9F1040B23460F2709F1D6
:10149000040AABF1040EC9E00125A5402A40AA4286
:1014A0007DD1674ED1F804C0ACEB0608B44532D00C
:1014B00014DCBCF1030F3AD009DCBCF1000F2AD0D8
:1014C000BCF1010F1CD0BCF1020F31D11DE0BCF109
:1014D000110F17D0BCF1120F2AD119E0B8F5881FEF
:1014E00019D006DCB8F5803F15D0B8F5801F1FD1A4
:1014F00011E0B8F5001F0ED0B8F5041F18D10AE0AE
:10150000CB6815E0CB681B1D12E0CB6808330FE0F9
:10151000CB680C330CE08B682BB1012B4FF0080328
:1015200003D0456104E0042302E0056100E00023EC
:10153000FF2A01D8064601E000F104064FEA8405BF
:1015400001D9A5F12005D6F8008007FA05FC28EAA4
:101550000C0803FA05F548EA0508C6F800804D684E
:10156000ED0062D5374DAE6946F00106AE61AD695A
:1015700024F0030605F001050095334D06EB050C3C
:10158000DCF80850A607360F07FA06F825EA080522
:10159000DFF8B880404503D14FF0000817E044E081
:1015A000DFF8AC80404502D14FF001080FE0DFF8D2
:1015B000A480404502D14FF0020808E0DFF898808F
:1015C000404502D14FF0030801E04FF0040808FA4B
:1015D00006F848EA0508CCF808804D68D9F800609C
:1015E000ED024D4601D5164300E096432E604D684E
:1015F000DAF80060AD02554601D5164300E0964387
:101600002E604D68DBF80060AD035D4601D51643E2
:1016100000E096432E604D68DEF80060ED037546ED
:1016200001D5164300E096432E60641C0D682A46DF
:10163000E5407FF431AFBDE8F88F000008040140B9
:10164000000011100010024000000140000801409D
:10165000000C014000100140001401408068084067
:1016600000D0012070470AB1016170470904FBE70F
:1016700001488068704700007000002070B50400C9
:1016800025D094F83D00002520B984F83C50204630
:1016900000F014FB242084F83D002068016821F04C
:1016A000010101602068016841F400410160206887
:1016B000016821F40041016000F0F0FC4D4A6168CE
:1016C000914201D84C4900E04C49884201D20120A6
:1016D00070BD4B492368B0FBF1F15E6826F03F0610
:1016E0000E435E606368934206D94FF49673594384
:1016F0004FF47A73B1FBF3F12368491C1E6A26F09C
:101700003F06314319626168914210D84900401E7A
:10171000B0FBF1F2521CC2F30B02042A01D20420E6
:1017200022E0B0FBF1F0401CC0F30B001CE0A2680B
:10173000F2B301EBC10303EB0116431EB3FBF6F357
:101740005B1C43F480431B0549D092B301EBC102FB
:1017500002EB0111401EB0FBF1F0401CC0F30B0086
:1017600040F4804040F400402168CA694CF6FF73A1
:101770009A431043C861D4E9071001432068026806
:1017800022F0C00211430160D4E903010143206843
:10179000826848F2FF339A4311438160D4E905011E
:1017A00008432168CA6822F0FF021043C86001E0C4
:1017B0000EE016E02068016841F001010160256437
:1017C000202084F83D00256384F83E50002070BD41
:1017D00001EB4106431EB3FBF6F35B1CB3E70120AC
:1017E000C2E701EB4101401EB0FBF1F0401CC0F329
:1017F0000B00B7E7A086010080841E0000093D00B1
:1018000040420F002DE9F84F1F4690468A46044695
:10181000DDF82890FFF72CFF054694F83D002028BE
:101820007FD11923012240492046009501F052FD45
:10183000002876D194F83C00012872D0012084F869
:101840003C0020680168C90703D1016841F001012B
:1018500001602068016821F400610160212084F8A2
:101860003D00102084F83E0000262664C4F8248041
:101870006785608D20852D48E0622B464A4651469B
:10188000204601F0DBFB90B9206841698069009037
:1018900036E02A464946204601F0FAFD50B1206C58
:1018A000042804D12068016841F40071016001201E
:1018B000BDE8F88F606A216800780861606A401CA2
:1018C0006062618D491E6185218D491E89B2218525
:1018D00022685369DB435B070BD451B10078106178
:1018E000606A401C6062608D401E6085208D401ED5
:1018F00020852A464946204601F0C0FC0028CED16A
:10190000208D0028C5D154F83D0B016841F40071C9
:101910000160202004F81E09E67766770020C7E7FB
:10192000FFE70220C4E70000020010000000FFFFF4
:101930002DE9FF4F83B00025DDE910799A469346E3
:101940000446DDF848800095FFF792FE064694F8BD
:101950003D0020287CD11923012288492046009689
:1019600001F0B8FC0028F5D194F83C0001286FD0B4
:10197000012084F83C0020680168C90703D1016890
:1019800041F0010101602068016821F400610160FB
:10199000222084F83D00402084F83E0025646762E0
:1019A000A4F82A90608D20857548E062CDE9008614
:1019B00053465A462046049901F08EFB00287CD1FC
:1019C000208DDFF8C091202768B1012814D00228AB
:1019D000206801681ED041F480610160206841697F
:1019E00080690090BCE020684169816900910168CC
:1019F00041F400710160B3E02068016821F4806166
:101A0000016072B62068416981690091016841F402
:101A100000710AE041F40061016072B6206841691A
:101A200081690091016821F48061016062B697E0EC
:101A3000032865D801280CD0022843464FF0000245
:101A40004946204600960BD001F044FCA8BB0CE0B0
:101A500091E032464146204601F0E2FC68BB72E06C
:101A600001F038FC48BB72B633E02068016821F40D
:101A70008061016072B620680069616A0870606AFE
:101A8000401C6062208D401E2085608D401E608558
:101A90003D4846F2A8110068B0FBF1F0C0EBC00071
:101AA00000EB80000090401E009007D02068406945
:101AB000C04340070DD50098F5E727E044F8305FB4
:101AC0006773A573206940F02000206162B625731A
:101AD0001CE02068016841F4007101602068006921
:101AE000616A0870606A401C6062218D491E218510
:101AF000618D491E618562B621680969017026E021
:101B000032464146204601F08BFC18B1012007B057
:101B1000BDE8F08F20680069616A0870606A401C47
:101B20006062208D401E81B22185608D401E6085DF
:101B300020684269D243520712D4032903D10168B5
:101B400021F48061016020680069616A0870606A40
:101B5000401C6062208D401E2085608D401E608587
:101B6000208D00287FF464AF84F83D7084F83E50E7
:101B700084F83C50CBE70220C9E7000002001000C7
:101B80000000FFFF040001007C0000202DE9FF4F52
:101B900083B09A46DDE9119793460446DDF840800C
:101BA000FFF766FD054694F83D0020287FD11923F4
:101BB000012240492046009501F08CFB002876D197
:101BC00094F83C00012872D0012084F83C00206881
:101BD0000168C90703D1016841F001010160206873
:101BE000016821F400610160212084F83D0040205B
:101BF00084F83E0000262664C4F82480A4F82A90C5
:101C0000608D20852C48E062CDE9007553465A4628
:101C10002046049901F0DEFA70B930E02A463946D0
:101C2000204601F035FC58B1206C042804D120680E
:101C3000016841F400710160012007B0BDE8F08F38
:101C4000606A216800780861606A401C6062218DCA
:101C5000491E89B22185628D521E628522685369B0
:101C6000DB435B070BD469B100781061606A401CEC
:101C70006062208D401E2085608D401E6085208D15
:101C80000028CBD12A463946204601F0F7FA002831
:101C9000CAD154F83D0B016841F400710160202065
:101CA00004F81E09E67766770020C6E7FFE7022002
:101CB000C3E70000020010000000FFFF30B585B050
:101CC000002100910191029103911E4D03681E4C69
:101CD000122103221D48AB4216D1A36943F0080329
:101CE000A361A369039203F008030493C023CDE921
:101CF00000316946FFF7C2FBE06940F40010E06183
:101D0000E06900F4001019E0114DAB4217D1A3694E
:101D100043F00803A361A369039203F0080304934B
:101D20004FF44063CDE900316946FFF7A7FBE06956
:101D300040F48000E061E06900F48000049005B0A8
:101D400030BD00000054004000100240000C014073
:101D50000058004002488168027811448160704751
:101D600070000020074810B5016841F010010160C3
:101D7000032000F075F80F2000F006F800F024F8BA
:101D8000002010BD0020024070B50D4D04464FF4F8
:101D90007A712878B1FBF0F00A490968B1FBF0F0DC
:101DA00000F052FB48B9102C07D200222146501EE9
:101DB00000F036F800206C6070BD012070BD00009E
:101DC000700000207C0000200C4808B5816941F0BB
:101DD00001018161816901F001010091C16941F056
:101DE0008051C161C06900F0805000900448416892
:101DF00021F0E06141F00071416008BD0010024037
:101E000000000140002809DB00F01F020121914081
:101E10004009800000F1E020C0F800117047000088
:101E2000F0B40E4B1B680C46C3F30223C3F1070545
:101E3000042D00D90425191D072901D2002300E033
:101E4000DB1E012606FA05F1491E214099409E40FD
:101E5000761E16403143F0BC02F0D3BB0CED00E01F
:101E6000064900F0070208684FF6FF03184040EAF1
:101E70000220034A10430860704700000CED00E0A8
:101E80000000FA052DE9F84305460078354CC007F7
:101E900054D0E0690026C00008D4E06940F08050CA
:101EA000E061E069012600F0805000902E48016852
:101EB000C90512D40168804641F480710160FFF7C2
:101EC000D7FB074605E000BFFFF7D2FBC01B642825
:101ED00023D8D8F80000C005F6D5206A10F4407069
:101EE00021D0A98801F4407181421CD0206A1F4989
:101EF000012220F440700A6000220A602062C007BC
:101F000011D0FFF7B5FB074641F2883808E000BF63
:101F1000FFF7AEFBC11B414502D90320BDE8F883A2
:101F2000206A8007F4D5206A696820F4407008436D
:101F300020621EB1E06920F08050E06128788007BF
:101F400005D56068A96820F440400843606028789F
:101F5000C00605D56068E96820F480000843606029
:101F60000020DBE7001002400070004040044242C5
:101F70002DE9F0470F46050061D0434E306800F070
:101F80000700B84209D2306820F0070038433060BB
:101F9000306800F00700B84251D128683B4C8107F7
:101FA00012D5400703D5606840F4E060606028788F
:101FB000000703D5606840F4605060606068A968FD
:101FC00020F0F000084360602878C00728D06868D7
:101FD000012810D02168022810D0890700292EDAA4
:101FE000616821F0030101436160FFF741FB804616
:101FF00041F288390DE021688903EFE78901EDE7B7
:10200000FFF736FBA0EB0801494502D90320BDE8E4
:10201000F0876068696800F00C00B0EB810FEFD1C9
:10202000306800F00700B8420BD9306820F0070094
:1020300038433060306800F00700B84201D001201A
:10204000E5E72878400705D56068E96820F4E06096
:10205000084360602878000706D56068296920F485
:10206000605040EAC100606000F038F86168084ADA
:10207000C1F30311515CC840064908600648006876
:10208000FFF782FE0020C2E700200240001002405D
:10209000CC5400087C00002074000020044805494E
:1020A00000684968044AC1F30221515CC840704786
:1020B0007C00002000100240DC5400080448054960
:1020C00000684968044AC1F3C221515CC8407047A6
:1020D0007C00002000100240DC5400080E4A5168C9
:1020E0000E4801F00C03042B11D0082B0FD10C4823
:1020F000C1F38343C903C05C0AD55168084AC1F3E0
:102100004041921E515C054A5043B0FBF1F07047CC
:1021100004494843704700000010024000127A0052
:10212000BC54000800093D002DE9F84F040070D0B0
:102130002078C04DC00749D06868C0F381000128ED
:1021400007D06868C0F38100022809D16868C0031D
:1021500006D52868800339D560680028E7D035E0C7
:102160006068B0F5803F0BD010B1B0F5A02F11D052
:10217000286820F480302860286820F4802002E05D
:10218000286840F480302860606890B1FFF770FAEA
:1021900006460AE0286840F480202860F0E700BF87
:1021A000FFF766FA801B642873D828688003F7D588
:1021B0000CE0FFF75DFA064605E000BFFFF758FAAE
:1021C000801B6428F0D828688003F7D420789A4EC2
:1021D00080074FF001094FF0000839D5686810F00A
:1021E0000C0F07D06868C0F38100022809D1686825
:1021F000C00306D42868800714D52069012808D1B7
:1022000010E02069B0B1C6F80090FFF731FA074638
:1022100005E00AE1FFF72CFAC01B0228C4D82868A1
:102220008007F7D52868616920F0F80040EAC1000E
:1022300028600DE0C6F80080FFF71AFA074604E0B0
:10224000FFF716FAC01B022823D828688007F7D4A6
:10225000207800072CD57948A169D9B1C0F8009041
:10226000FFF706FA074604E0FFF702FAC01B022850
:102270000FD8686A8007F7D571484FF4FA510068A3
:10228000B0FBF1F0009000BF0098411E0091FAD21F
:102290000EE080E0C0F80080FFF7EAF9074604E0AE
:1022A000FFF7E6F9C01B022875D8686A8007F7D4E3
:1022B0002078400760D5E8690027C00008D4E869A5
:1022C00040F08050E861E869012700F080500090FC
:1022D0005C480168C90513D40168834641F48071E4
:1022E0000160FFF7C5F9824606E000BFFFF7C0F9BD
:1022F000A0EB0A0064284ED8DBF80000C005F5D535
:10230000E06801280AD008B1052813D0286A20F017
:1023100001002862286A20F0040002E0286A40F0E8
:1023200001002862E06841F2883B98B1FFF7A0F90C
:1023300082460BE0286A40F004002862EEE700BF06
:10234000FFF796F9A0EB0A0159455AD8286A800789
:10235000F6D50CE0FFF78CF9824605E0FFF788F927
:10236000A0EB0A0159454CD8286A8007F6D41FB162
:10237000E86920F08050E861E06988B36968C1F3DA
:102380008101022944D00228C6F8608004D0FFF7FA
:102390006FF9044638E034E0FFF76AF9074604E0D5
:1023A000FFF766F9C01B02282BD828688001F7D4F4
:1023B000206AB0F5803F05D16868A16820F400303C
:1023C00008436860D4E908010843696821F474117E
:1023D00008436860C6F86090FFF74AF9044606E0D3
:1023E00025E000BFFFF744F9001B022809D8286840
:1023F0008001F7D51BE000BFFFF73AF9001B022868
:1024000002D90320BDE8F88F28688001F4D40EE0DB
:102410000128F7D06868226A00F48031914204D123
:10242000616A00F47010884201D00120EAE70020C0
:10243000E8E70000001002400000424280044242EF
:102440007C0000200070004010B5401EB0F1807F7D
:1024500001D3012010BD4FF0E02460610F2160170F
:1024600002F0CFF80020A06107202061002010BDFD
:102470007047704710B590F83C20012A22D0012205
:1024800080F83C20CA688C6822F4407222434C6871
:1024900022F4806222430C6822F4006222430C6919
:1024A00022F4805222434C6922F400522243C9692B
:1024B000002322F480420A4301684A6480F83C30D9
:1024C000002010BD022010BD70B590F83C20012AFC
:1024D00026D0012480F83C40022280F83D20036889
:1024E0005A689D6822F070060A6832435A600D4BA4
:1024F00002689A4208D0B2F1804F05D00A4B9A4246
:1025000002D00A4B9A4204D1496825F0800319434E
:10251000916080F83D40002180F83C10084670BD75
:10252000022070BD002C0140000400400008004063
:1025300010B5040003D094F83D0010B107E001206D
:1025400010BD002084F83C00204600F01FF8022057
:1025500084F83D00211D206801F068FB012084F80B
:10256000460084F83E0084F83F0084F8400084F878
:10257000410084F8420084F8430084F8440084F861
:10258000450084F83D00002010BD000008B51A4A3F
:1025900001681A48914208D1816941F40061816162
:1025A000806900F40060009008BDB1F1804F14D044
:1025B000134A9142F8D1C16941F00201C161C06979
:1025C000002200F00200009011461D20FFF728FCB9
:1025D0001D20BDE80840FFF715BCC16941F00101AD
:1025E000C161C069002200F00100009011461C206A
:1025F000FFF716FC1C20ECE7002C01400010024005
:102600000004004090F83D10012901D001207047DE
:10261000022180F83D100168CA6842F00102CA60D8
:1026200000680B49884208D0B0F1804F05D00949B5
:10263000884202D00849884204D1816801F007012C
:10264000062903D0016841F00101016000207047B4
:10265000002C014000040040000800400168CA68E6
:1026600022F00102CA6001680A6A41F211131A429B
:1026700007D10A6A9B101A4203D10A6822F00102AC
:102680000A60012180F83D100020704770B50446B3
:1026900090F83C000025012817D0012684F83C6002
:1026A000022084F83D002068826822F0770222F43C
:1026B0007F4282600868502838D00DDC20284FD037
:1026C00005DC90B3102811D14AE0022070BD3028FB
:1026D00046D040280AD13BE060282FD070280DD08A
:1026E000B0F5805F03D0B0F5005F12D0012584F80B
:1026F0003D60002084F83C00284670BDCB68D1E9DD
:102700000121206801F0DBFA2068816841F077013F
:1027100009E0CB68D1E90121206801F0D0FA2068F6
:10272000816841F480418160E1E719E0CA68496845
:10273000206801F079FB5021206806E0CA684968EA
:10274000206801F082FB6021206801F0C2FACEE728
:10275000CA684968206801F067FB40212068F4E7F7
:10276000226801461046F0E770472DE9F041044623
:102770000068C66805694FF00007A90713D5B107BF
:1027800011D5F91E0161012020772068806980073A
:10279000204602D0FFF7E8FF04E000F0A5F820464D
:1027A00000F037F92777680716D5700714D5216828
:1027B0006FF004000861022020772068806910F41F
:1027C000407F204602D0FFF7CFFF04E000F08CF8F6
:1027D000204600F01EF92777280715D5300713D5B6
:1027E00021686FF008000861042020772068C06924
:1027F0008007204602D0FFF7B7FF04E000F074F82E
:10280000204600F006F92777E80616D5F00614D51D
:1028100021686FF010000861082020772068C069E7
:1028200010F4407F204602D0FFF79EFF04E000F046
:102830005BF8204600F0EDF82777E80708D0F007AE
:1028400006D021686FF001000861204600F030F9E1
:10285000280608D5300606D521686FF0800008618B
:102860002046FFF705FE680608D5700606D52168E4
:102870006FF040000861204600F06AF9A8060AD50A
:10288000B00608D521686FF0200008612046BDE839
:10289000F041FFF7EEBDBDE8F081000000B585B066
:1028A0000021009101910291039100680B49884237
:1028B00012D10B48816941F0040181618069694648
:1028C00000F0040004904FF480700090022001900A
:1028D00003900448FEF7D2FD05B000BD002C014076
:1028E0000010024000080140704770B5044690F89F
:1028F0003C0000260D4601280FD0012084F83C0042
:102900006AB1042A1DD0082A2FD00C2A3FD00126F4
:10291000002084F83C00304670BD022070BD206865
:1029200001F0E0F92068816941F0080181612068C7
:10293000816921F004018161206881692A6911435C
:1029400011E0206801F0F6F92068816941F4006126
:1029500081612068816921F48061816120688169D9
:102960002A6941EA02218161D2E7206801F00EFA6A
:102970002068C16941F00801C1612068C16921F086
:102980000401C1612068C1692A69114311E020680E
:1029900001F028FA2068C16941F40061C161206832
:1029A000C16921F48061C1612068C1692A6941EA75
:1029B0000221C161ACE710B5040003D094F83D00DA
:1029C00010B107E0012010BD002084F83C00204633
:1029D00000F01EF8022084F83D00211D206801F05F
:1029E00025F9012084F8460084F83E0084F83F0071
:1029F00084F8400084F8410084F8420084F84300E1
:102A000084F8440084F8450084F83D00002010BD9F
:102A10007047704710B50446022249B104290ED010
:102A2000082913D094F84100012816D0012010BDC8
:102A300094F83E000128F9D184F83E200FE094F884
:102A40003F000128F2D184F83F2008E094F84000CC
:102A50000128EBD184F8402001E084F841200122D4
:102A6000206801F01FF90F492068884203D1426CA9
:102A700042F4004242642068884208D0B0F1804F9E
:102A800005D00949884202D00849884204D18168AA
:102A900001F00701062903D0016841F0010101603E
:102AA000002010BD002C0140000400400008004040
:102AB0002DE9F04107462248224C874237D1206C4D
:102AC00002F084FBA16A02F079FC2066A16B054646
:102AD000884602F0A7FB616E02F018FA60660646AF
:102AE0002846E16D02F074FC414602F071FA01469D
:102AF000A066606B02F096FB80463146206B02F0C8
:102B000091FB06462946E06A02F08CFB314602F052
:102B1000FDF9414602F0FAF90B49E066884202DC11
:102B20000A49884200D9E166E565FEF773F8044872
:102B30004830874201D10120A071BDE8F08100003A
:102B4000A0010020000000200000C8420000C8C210
:102B5000704738B5044690F84200202801D0022082
:102B600038BD51B14AB10120206300206063204686
:102B700001F0BEFC216B012901D0012038BD216884
:102B80000A684968009121680C3151E8002F42F031
:102B9000100241E80023002BF5D138BD006803493D
:102BA000884202D102490120487070470038014034
:102BB0000000002070470000F8B50168044608686E
:102BC000CA684B6910F00F0F4FF0000559D003F0A1
:102BD000010602F49077374365D0C10705D0D105CF
:102BE00003D5616C41F001016164410705D5D90746
:102BF00003D0616C41F002016164810705D5D907FA
:102C000003D0616C41F004016164010707D502F053
:102C10002001314303D0616C41F008016164616CB3
:102C200000293AD0800604D5900602D5204601F04E
:102C3000A1FB20684069616CC0F38010090700D4D3
:102C400060B3204601F061FB20684069400621D551
:102C50002068143050E8001F21F0400140E80012C5
:102C6000002AF5D1E06BA8B16D494163E06BFEF736
:102C700079FA002811D0E06B416B01B0BDE8F0405B
:102C8000084783060FD593060DD52046BDE8F840CA
:102C900001F070BB2046FFF78DFFF8BD2046FFF71F
:102CA00089FF6564F8BD266B2023012E7CD1C60602
:102CB0007AD5D60678D508684868009048694FF0FC
:102CC0000206400640D5E16B086840680004000C2D
:102CD000E8D0A28D8242E5D9E085886920282DD0F0
:102CE00020680C3050E8001F21F4807140E8001289
:102CF000002AF5D12068143050E8001F21F00101AE
:102D000040E80012002AF5D12068143050E8001F76
:102D100021F0400140E80012002AF5D184F8423049
:102D2000256320680C3050E8001F21F0100140E8B6
:102D30000012002AF5D1E06BFEF7F0F96663A08D72
:102D4000E18D401A81B22AE0A08DE18D401A81B256
:102D5000E08D0028A6D00029A4D022680C3252E8C9
:102D6000000F20F4907042E80007002FF5D1206892
:102D7000143050E8002F22F0010240E80027002F15
:102D8000F5D184F84230256320680C3050E8002FDC
:102D900022F0100240E80023002BF5D166632046A4
:102DA000FFF7FCFEF8BDFFE705062BD5150629D574
:102DB00094F841002128F5D1A068B0F5805F01D1D9
:102DC0002069B0B1206A411C216221680078486006
:102DD000E08C401E0004000CE084E3D12068C16850
:102DE00021F08001C1602068C16841F04001C160EC
:102DF000D8E7206A0088C0F308004860206A801C79
:102E00002062E5E74006CDD55006CBD5CA682046FE
:102E100022F04002CA6084F8413000F0F5F8C1E7C2
:102E20000D42000870B5040004D094F8410000255C
:102E300010B106E0012070BD84F84050204600F03B
:102E400023F8242084F841002068C16821F400514F
:102E5000C160204601F0F0FA2068016921F4904138
:102E600001612068416921F02A0141612068C1683F
:102E700041F40051C1606564202084F8410084F869
:102E800042006563002070BDF0B585B000240646A1
:102E9000009401940294039400682C49884253D111
:102EA0002B48816941F480418161816901F480414D
:102EB0000491816941F0040181618069254D00F030
:102EC000040004904FF40070009002200190032051
:102ED000039069462846FEF7D1FA2815CDE900048B
:102EE000694628460294FEF7C9FA1C4D1A48802705
:102EF000C5E90004C5E902472C616C61AC61284654
:102F0000EC61FEF725FA08B1FDF721FFF5636E626B
:102F10001148134D143801C5102091C5202045F8E3
:102F20001049C5E905400E48EC61FEF711FA08B1F9
:102F3000FDF70DFFB5630022114625206E62FEF7F6
:102F40006FFF2520FEF75EFF05B0F0BD00380140A1
:102F5000001002400008014058000240C00200205A
:102F600004030020704770472DE9F843044690F8A9
:102F70004100984616460D46202802D00220BDE8A2
:102F8000F88385B17EB100206064212084F841007F
:102F9000FEF76EFBA6848146E684A0682027B0F584
:102FA000805F02D003E00120E9E7206910B12E46DE
:102FB00000250EE000260CE08021204601F0E0FA1A
:102FC000A8B9C6B116F8010B21684860E08C401E14
:102FD000E084E08C4B464FF00002CDF800800028E2
:102FE000EAD14FF04001204601F0CAFA40B184F81E
:102FF00041700320C3E735F8020BC0F30800E3E794
:1030000084F841700020BAE77047FEE701684A691A
:10301000D24352050FD46FF480624A61002140F818
:10302000301F202242738173026942F00402026160
:10303000017301207047002070470000F8B5044676
:10304000C06A1E460D461746082807D0012805D03D
:1030500010F5803F02D0206B122804D1206801684F
:1030600041F480710160134600224FF001112046A7
:10307000009600F02FF940B120680068C00502D525
:103080004FF4007020640320F8BD2069B0F5804F34
:103090000ED00620216800EAD51040F0F00008614B
:1030A00033463A460B49204600F05CF978B902E015
:1030B00005F0FE0000E0E8B22168086105493346EA
:1030C0003A46891F204600F04DF90028DCD0012047
:1030D000F8BD0000080001002DE9F84F0446006823
:1030E00089460B9D01689846174641F4806101604E
:1030F0002068016841F48071016000954FF0011B68
:103100000022594620460A9B00F0E4F84FF4007A6A
:1031100040B120680068C00501D5C4F840A0032074
:10312000BDE8F88F216809F0FE0008612B462849A8
:1031300020460A9A00F016F9F0BB206841698069C0
:1031400000902A4620460A9900F0A2F940B1206C6E
:1031500004283AD12068016841F40071016034E02C
:10316000FEB2B8F1010F09D02168380A08612A4679
:1031700020460A9900F08CF90028E8D12068066101
:103180002A4620460A9900F083F90028DFD12068FA
:10319000016841F480710160009500225946204683
:1031A0000A9B00F097F80028B3D1216809F0FF00CE
:1031B00040F00100086100E007E02B46044920468A
:1031C0000A9A00F0CFF80028AAD00120A8E7000052
:1031D000020001002DE9F843044600680D46DDE9D0
:1031E000089701689846164641F4807101604B4685
:1031F00000224FF001112046009700F06BF848B113
:1032000020680068C00502D54FF4007020640320D8
:10321000BDE8F883216805F0FE0008613B464A4698
:103220001549204600F09EF888B9206841698069F8
:1032300000903A464946204600F02AF948B1206CF1
:10324000042804D12068016841F400710160012064
:10325000DEE7F5B2B8F1010F09D02168300A086144
:103260003A464946204600F013F90028E7D1206885
:1032700005610020CCE700000200010070B5164691
:103280000D4604461EE02046FFF7C0FE08B10120AF
:1032900070BD681C16D0FEF7EBF9801BA84200D861
:1032A00085B920684069C04340070BD5002044F829
:1032B000300F20216173A073216941F02001216149
:1032C0002073E4E720684069C0434007DBD4002056
:1032D00070BD00002DE9F047984617460D4604469C
:1032E000C1F30746DDF820902AE000BFB8F1FF3FA8
:1032F00026D0FEF7BDF9A0EB0901414502D8B8F18F
:10330000000F1DD12068012E16D0806925EA00002B
:103310000004000C12D00020B84211D1002044F863
:10332000300F20216173A073216941F020012161D8
:1033300020730120BDE8F0874069E7E70120EBE753
:103340002068012E0AD0806925EA00000004000CE4
:1033500006D00020B842C9D00020EBE74069F3E76F
:103360000120F7E72DE9F047984616460D4604463A
:103370004FF000094FF0200AC1F3074723E020680F
:103380004069C043400515D42068016841F40071CC
:10339000016021686FF480604861C4F8309084F85F
:1033A0003DA084F83E90216C41F00401216484F832
:1033B0003C9021E0701C06D0FEF75AF9A0EB080003
:1033C000B04203D816B1012F1FD021E02068012F91
:1033D00015D0806925EA00000004000C18D000BF59
:1033E00044F8309F84F80DA084F80E90216941F0D4
:1033F0002001216184F80C900120BDE8F08740692C
:1034000025EA00000004000CEAD12068406901E0D0
:103410002068806925EA00000004000CAFD1ECE7C9
:103420002DE9F041002590460E460446202728E06D
:103430004069C043C0060CD454F8301B6FF0100034
:10344000486144F810596777A577206A206225778C
:1034500014E0FEF70DF9A0EB0800B04200D886B9E1
:1034600020684069C04340060BD544F8305F67735D
:10347000A573206940F02000206125730120BDE87C
:10348000F08120684169C9434906D1D40020F6E79C
:1034900070B516460D4604461EE02046FFF7B6FD01
:1034A00008B1012070BD681C16D0FEF7E1F8801B42
:1034B000A84200D885B920684069C04300060BD5F2
:1034C000002044F8300F20216173A073216941F07E
:1034D000200121612073E4E720684069C0430006B1
:1034E000DBD4002070BD00002DE9F041144E002512
:1034F00014487574B2784FF40051012706F11C048A
:1035000012B1012A05D008E00122FEF7ACF82570BF
:1035100003E00022FEF7A7F82770F1780A4841B1CE
:10352000012904D101221021FEF79DF86770BDE842
:10353000F08100221021FEF796F86570F7E7000091
:1035400000000020001001400008014070B5084D47
:10355000044600F001024FF480712846FEF783F81C
:10356000C4F3400269152846BDE87040FEF77BB8F9
:10357000000C01401CB540218DF8041001098DF8A4
:10358000051000018DF806004FF0FF300090032376
:1035900001AAC0210148FEF735F91CBD0401002035
:1035A0003EB5002411480094019402940E498460B1
:1035B000016004730475012505614FF460214460C6
:1035C000C161FDF777FC08B172B6FEE70920CDE9CD
:1035D0000005694602940548FDF7EAFB002801D082
:1035E00072B6FEE73EBD00000024014080000020CE
:1035F0002DE9F04786B000244148009401940294DC
:103600000394816941F010018161816901F0100129
:103610000491816941F020018161816901F02001FB
:103620000491816941F004018161816901F0040123
:103630000491816941F0080181618069DFF8C480EB
:1036400000F008004FF4005504900022294640463F
:10365000FEF709F8DFF8B0900022FC214846FEF79B
:1036600002F8DFF8A8A040F20137002239465046A0
:10367000FDF7F9FF0095022601250396CDE90154D7
:1036800069464046FDF7FAFEE8038DE831006946D9
:103690004046FDF7F3FE1E480095CDE9010469465A
:1036A0004846FDF7EBFECDE90064694648460294C2
:1036B000FDF7E4FEEC20CDE90005CDE902466946C0
:1036C0004846FDF7DBFE1020CDE90005CDE90256A6
:1036D00069464846FDF7D2FE00970396CDE90154AE
:1036E00069465046FDF7CAFE002211460620FEF745
:1036F00097FB0620FEF786FB06B0BDE8F0870000CA
:10370000001002400010014000080140000C014080
:103710000000211010B596B000240F94109411945D
:10372000129413941C2108A81494FCF7A8FE2021DD
:103730006846FCF7A4FE28482649C0E900144FF665
:10374000FF71C0E90241046144618461FEF7F0FE4B
:1037500008B172B6FEE74FF480500F900FA91E48D3
:10376000FEF794FF08B172B6FEE71B48FFF723F996
:1037700008B172B6FEE7139413A917481494FEF724
:10378000A3FE08B172B6FEE76020CDE908040A94F2
:103790000B940C940D94002208A90F480E94FFF787
:1037A000A4F808B172B6FEE700944FF40050CDE9DA
:1037B0000440029401940394694607480794FEF775
:1037C00059FE08B172B6FEE70348FFF767F816B076
:1037D00010BD0000002C01405801002010B586B03B
:1037E00000241648009401940294039404944FF02A
:1037F0008041059401604721C0E9011442F20F7134
:10380000C0E903148461FEF793FE08B172B6FEE7C7
:103810004FF48050009069460848FEF737FF08B122
:1038200072B6FEE7049404A904480594FEF74CFE22
:10383000002801D072B6FEE706B010BDA00100203E
:1038400010B586B0002417480094019402940394A4
:10385000049413490594016041F61F41C0E9011425
:1038600042F20F71C0E903148461FEF761FE08B1F2
:1038700072B6FEE74FF48050009069460948FEF7A3
:1038800005FF08B172B6FEE7049404A90548059443
:10389000FEF71AFE002801D072B6FEE706B010BD92
:1038A00000040040E8010020FEE7FEE7704700004A
:1038B00010B5094809A1026C0A48FCF793FC0949B4
:1038C00082B24FF0FF33A1F17600FFF74DFBBDE868
:1038D00010400520FDF7A2BD0000002025640D0A60
:1038E00000000000A60200202DE9FE4F01202F4C11
:1038F00000252E46207281464FF0640A274604F1C7
:103900001C088DE88006AAB20223A0212848FEF7F1
:103910000FF8397808F806106D1C761C4046022D09
:10392000EFDD0546027823484FF400514FF0FF3693
:1039300012B1012A06D016E00122FDF794FE4FF4E1
:103940007A7204E00022FDF78EFE40F2E9321AA1FD
:103950001B48A264FCF746FC194982B23346A1F128
:103960008300FFF701FB69781648B1B101291BD12B
:1039700001221021FDF777FE40F2F3320EA110482C
:10398000A264FCF72FFC03B03346BDE8F04F0C49AE
:1039900082B2A1F18300FFF7E7BA00221021FDF700
:1039A00062FE40F2F232E9E7BDE8FE8F000000203F
:1039B000B00000200010014025640D0A0000000046
:1039C000B3020020000801407FB500200190029062
:1039D00003907020154C009069462046FDF74EFD7F
:1039E00010212046FDF73AFE08B1012600E000262E
:1039F00020212046FDF732FE08B1022500E0002517
:103A00003543402126462046FDF728FE08B1042410
:103A100000E0002401200190022003902C4369461D
:103A20003046FDF72BFD04B0204670BD000C014070
:103A300070B5114C00204FF4FA7520766076C0B254
:103A400000F03AF8607E00F019F8A076606D012869
:103A50000ED0E07EA076C0B2FFF778FD2846FDF7D5
:103A6000DDFC607E401CC0B260760828E7D370BDE4
:103A7000607E00F00300EDE70000002070B500F06C
:103A80001BF80C4D012251022846FDF7ECFDAE1546
:103A9000002231462846FDF7E6FD0120FDF7BEFC79
:103AA000FFF792FF0446012231462846FDF7DBFD71
:103AB000204670BD000C014070B50B4D044600F06F
:103AC000010220212846FDF7CEFDC4F3400240212B
:103AD0002846FDF7C8FDC4F380022846BDE87040C3
:103AE0008021FDF7C0BD00000008014070B50E4CFC
:103AF000002501266576E576E07E401CC0B2E076C2
:103B0000072801D9666500E0656500F00301607E65
:103B100000F00CF86420FDF781FC607E401CC0B210
:103B200060760828E8D370BD0000002010B50C4670
:103B3000FFF7C2FF204600F015F8094C00220121D2
:103B40002046FDF790FD0120FDF768FC012211469B
:103B50002046FDF788FDBDE810400120FDF75EBC62
:103B6000000C014070B50B4D044600F001024FF40B
:103B700000612846FDF777FDC4F340021446A914FE
:103B80002846FDF770FD224669142846BDE87040BE
:103B9000FDF769BD000801407047FEF7DBB830B59E
:103BA00093B028216846FCF76AFC14210AA8FCF7A8
:103BB00066FC0024012108040F94109412940491CF
:103BC000CDE90010CDE9080411940294022507956F
:103BD0006846FEF7A9FA08B172B6FEE70F20CDE9F4
:103BE0000A054FF48060CDE90C4000210AA80E942C
:103BF000FEF7BEF908B172B6FEE70FA80F95119453
:103C0000FEF740F9002801D072B6FEE713B030BDD0
:103C1000704700000148FEF7A8BD0000A001002089
:103C20000148FEF7A2BD0000E8010020F0B50268DF
:103C3000194B1A4C1A4D4FF08047984205D0B842A4
:103C400003D0A04201D0A84203D122F070064A68F6
:103C50003243984205D0B84203D0A04201D0A842D6
:103C600003D122F44074CA6822434C6922F08002D6
:103C7000224302608A68C2620A688262984201D165
:103C800009690163012141610169C90703D0016923
:103C900021F001010161F0BD002C01400004004051
:103CA0000008004010B501F01F030121046A99408B
:103CB0008C430462016A9A401143016210BD10B541
:103CC000846842EA032224F47F440A432243826048
:103CD00010BD826822F070020A4342F00701816041
:103CE0007047000030B5036A026A22F001020262E6
:103CF0004268846924F073050C682C4323F00205A4
:103D00008B682B430A4DA8420BD123F00805CB68E2
:103D100022F440722B434D6923F0040315438A6952
:103D20002A434260846149684163036230BD0000F8
:103D3000002C014030B5026A036A23F010030362CD
:103D4000436884690D6824F4E64444EA05248D68D8
:103D500022F0200242EA05120B4DA8420ED1CD6896
:103D600022F0800242EA05124D6923F4406343EADF
:103D700085038D6922F0400243EA85034360846134
:103D800049688163026230BD002C014030B5036A8E
:103D9000026A22F4807202624268C46923F40073EA
:103DA00024F073050C682C438D6843EA05230C4D01
:103DB000A8420ED1CD6823F4006343EA05234D6980
:103DC00022F4405242EA05128D6923F4806342EAEC
:103DD00005124260C4614968C163036230BD0000DE
:103DE000002C014030B5046A026A22F4805202625B
:103DF0004268C3690D6823F4E64343EA05238D68EE
:103E000024F4005444EA0534064DA84204D14D6917
:103E100022F4804242EA85124260C361496801642B
:103E2000046230BD002C014010B5036A046A24F01E
:103E300001040462846924F0F00444EA021423F0CB
:103E40000A020A438461026210BD10B5036A046A63
:103E500024F010040462846923F0A00324F4704465
:103E600044EA023243EA01118261016210BD00009E
:103E700070B5964C9649002666701122A1F1480053
:103E8000FEF767FE9248042292A1E063FCF7ACFAC9
:103E90000125002827D1E06B012290A10930FCF711
:103EA000A3FA00BB657411228DA1E06BFCF79CFAAC
:103EB00030B111228DA1E06BFCF796FA10B102E04F
:103EC000A67000E0A57011228BA1E06BFCF78CFAC4
:103ED00030B111228BA1E06BFCF786FA10B102E041
:103EE000E67000E0E570042289A1E06BFCF77CFA43
:103EF00000282AD1E06B012278A10930FCF774FA7E
:103F000018BBA574112284A1E06BFCF76DFA00B90F
:103F10006572112283A1E06BFCF766FA00B9A57205
:103F2000112283A1E06BFCF75FFA00B9E572112260
:103F300082A1E06BFCF758FA00B92573112282A127
:103F4000E06BFCF751FA00B96573042281A1E06BC4
:103F5000FCF74AFAA0B9E06B012260A10930FCF736
:103F600043FA68B911227DA1E06BFCF73DFA00B974
:103F7000E67411227CA1E06BFCF736FA00B9E57417
:103F800004227CA1E06BFCF72FFA18BBE06B012246
:103F900052A10930FCF728FAE0B92575112277A162
:103FA000E06BFCF721FA30B1112277A1E06BFCF74E
:103FB0001BFA10B102E0267100E02571112275A1F3
:103FC000E06BFCF711FA30B1112275A1E06BFCF740
:103FD0000BFA10B102E0A67300E0A573042273A1EE
:103FE000E06BFCF701FA28BBE06B01223BA1093032
:103FF000FCF7FAF9F0B96575E06B01226DA1001DBF
:10400000FCF783F970B1E06B012234A1001DFCF7CD
:104010007CF938B1E06B042267A1001DFCF775F94B
:1040200048B109E0E573112265A1E06BFCF7DCF90A
:1040300000B9257400E0E673042264A1E06BFCF78C
:10404000D3F9A8B9E06B012224A10930FCF7CCF91F
:1040500070B9A57511225FA1E06BFCF7C5F900B935
:10406000657111225EA1E06BFCF7BEF900B9E57144
:1040700004225EA1E06BFCF7B7F970B9E06B012296
:1040800016A10930FCF7B0F938B9E06B022259A14A
:10409000001DFCF73AF900B9E575042256A1E06B62
:1040A000FCF7A2F900280FD1E06B01220BA1093027
:1040B000FCF79AF9002807D1112251A1E06BFCF717
:1040C00093F9002800D1257670BD00000000002083
:1040D0007802002030303030000000003100000055
:1040E00030303030303030303031310030303030FE
:1040F00030303031303131003030303030303130EC
:104100003031310030303030303031313031310009
:10411000303030310000000030303031303030305D
:1041200030313100303030313030324430313100D4
:104130003030303130303541303131003030303195
:104140003030423430313100303030313031363877
:104150003031310030303032000000003030303249
:10416000303030303031310030303032303030317A
:104170003031310030303033000000003030303327
:104180003030303030313100303030333030303159
:104190003031310030303033303031303031310077
:1041A0003030303330303131303131003030303434
:1041B00000000000300000004646464600000000B7
:1041C0003030303431303030303131003030303513
:1041D00000000000303030353030303130313100C7
:1041E00030303035303031313031310030303036F0
:1041F000000000003030000030303130000000009E
:1042000030303130303030303031310010B5406A2C
:104210000021C185C184FEF7CDFC10BD70B5446A94
:104220002068406994F84110C0F3C010002521298E
:1042300004D118B1E584204600F08EF8206840696A
:1042400094F84210C0F38010222904D118B1E585FA
:10425000204600F05AF8606C40F010006064204680
:10426000FEF7A8FC70BD10B50146406A09680968F0
:104270004FF0000289062ED4C28501680C3151E846
:10428000003F23F4807341E80034002CF5D101682D
:10429000143151E8003F23F0010341E80034002CC1
:1042A000F5D10168143151E8003F23F0400341E8A3
:1042B0000034002CF5D1202180F84210016B012937
:1042C00009D101680C3151E8003F23F0100341E8A7
:1042D0000034002CF5D14263016B012902D0FEF7B6
:1042E00041FE10BD818DFEF759FC10BD10B5406A2E
:1042F00001214163016B012902D0FEF734FE10BD9C
:10430000818D4908FEF74AFC10BD01680C3151E867
:10431000002F22F4907241E80023002BF5D10168B0
:10432000143151E8002F22F0010241E80023002B54
:10433000F5D1016B012909D101680C3151E8002F39
:1043400022F0100241E80023002BF5D1202180F853
:10435000421000210163704701680C3151E8002FC1
:1043600022F0C00241E80023002BF5D1202180F883
:104370004110704708B590F84210222901D0022060
:1043800008BD82684FF480539A4201D1016921B17E
:10439000816A9A421BD04AB10AE00268816A526877
:1043A000C2F308020A80816A891C08E0026972B1BE
:1043B0000268526802F07F020A70816A491C8162B9
:1043C000C18D491E0904090CC18503D01BE0026898
:1043D0005268F1E70168CA6822F02002CA600168E9
:1043E000CA6822F48072CA6001684A6922F0010238
:1043F0004A61202180F8421000214163026B012AAA
:1044000003D0FEF7AFFD002008BD016301680C3149
:1044100051E8002F22F0100241E80023002BF5D1D3
:1044200001680A68D20602D50A6849680091818D40
:10443000FEF7B4FBE7E7000070B5044600680169C9
:10444000E26821F44051114301612169A0680843E9
:10445000616908432168CA6841F20C639A430243C8
:10446000CA6020684169A26921F440711143416129
:104470001E492068884202D1FDF720FE01E0FDF7C9
:104480000DFE00EBC00101EB0012606864218000AA
:10449000B2FBF0F3B3FBF1F36FF018067343B2FB1A
:1044A000F0F5B2FBF0F605EB8305322303EB0515BF
:1044B000B5FBF1F5B6FBF1F605F0F00505EB0615D9
:1044C000B2FBF0F6B2FBF0F0B0FBF1F06FF01802C7
:1044D000504306EB800003EB0010B0FBF1F02168C5
:1044E00000F00F002844886070BD000000380140D3
:1044F00038B581620446828500201346606422221A
:1045000084F84220E56B1B4AAA62E56B1A4AEA620C
:10451000E56B1A4A2A63E26B50630A462168E06B36
:10452000091DFCF743FF206801684068009020697E
:1045300048B120680C3050E8001F41F4807140E819
:104540000012002AF5D12068143050E8001F41F015
:10455000010140E80012002AF5D12068143050E82B
:10456000001F41F0400140E80012002AF5D1002070
:1045700038BD000067420008ED4200081D420008F7
:104580002DE9F843984617460D460446089E24E058
:10459000701C22D0FDF76CF8A0EB0800B0421AD8CE
:1045A000CEB12068C168490717D5802D15D0402DA0
:1045B00013D00168C94309070FD40168002540687A
:1045C00000902046FFF7A1FE0820606484F8405068
:1045D0000120BDE8F8830320FBE72068006835EA86
:1045E000000004D00020B842D2D00020F1E7012022
:1045F000F9E700000148FEF7DFBA000030020020B2
:10460000FEE70907090E002804DB00F1E02080F82E
:104610000014704700F00F0000F1E02080F8141D36
:104620007047000008B5FDF79DFBFFF7B8FAFEF7ED
:10463000DFFF5E48416941F00101416140690022AC
:1046400000F00100009011460E20FDF7E9FB0E205E
:10465000FDF7D8FB002211460F20FDF7E1FB0F20EC
:10466000FDF7D0FB53485249002501604FF4E1317A
:10467000C0E901150C21C560C0E904518561C5611F
:10468000FEF7D0FB08B172B6FEE7FFF743F8FFF77D
:10469000A5F8FFF7D5F849484749494E0160C0E9F8
:1046A00001650C14C0E9035445618561C56105626B
:1046B000FCF7E4FF08B172B6FEE7404841495438C0
:1046C0000160C0E90165C0E9035445618561C561C8
:1046D0000562FCF7D3FF08B172B6FEE7FEF760FF94
:1046E0003449112248313348FEF733FA3348002168
:1046F0005430FEF78FF92F489038FDF783FF2D488F
:104700004838FDF77FFFFFF7F1F92F4F2F4C4FF49B
:1047100000462A488438FCF787FC3220FCF77EFEEE
:1047200026488438FCF7C2FB606224488438FCF7D2
:10473000DBFC31463846FCF791FF6078012802D156
:104740006570FFF795FB607C012801D1FEF7CCFE78
:10475000A07C012804D1206D401C2065FCF76EF977
:10476000E07C012801D1FFF7A3F8207D012804D1C6
:10477000A079012801D1FCF7AFF8607D012801D1B3
:10478000FCF708FAA07D012801D1FCF7BDFA207AD8
:1047900008B9FFF7A9F8E07D012801D1FCF7A6F9D7
:1047A000207E0128B5D1FFF743F9B2E7001002409F
:1047B0000038014030020020005800400401002071
:1047C000801A060000540040001001400000002044
:1047D00010B500290AD00878002807D00548784489
:1047E000FBF7C8FF002801D0002010BD0248784424
:1047F00010BD0000260D00001E0D000021F000423B
:10480000A2F16052B2F5801F01F0004328BFD2F13F
:104810007F6C0BD95FEA001C43EAC20242EB507086
:1048200018BF704728BF20F001007047B2F5801F05
:10483000BCBF184670474FEA410C1CF5001F02D25E
:10484000084600F0B6BD70B500F021FA00000089FE
:10485000FFF7F6BF4FF00040A0F580007047000062
:1048600010B591EA030F48BF83F0004300F16C825A
:10487000841A71EB030C05D2121943EB0C03001BD5
:1048800061EB0C01DFF824E14FEA1154A4EB135C57
:104890001EEA430F18BF9EEA445F73D023EA0E035B
:1048A000DCF1200E21EA045143F4801332D322FAC2
:1048B0000CFE10EB0E0023FA0CFE41EB0E01CCF1C6
:1048C000200E03FA0EFE10EB0E0051F10001B1F5BF
:1048D000801FCCF1200E32D201EB045112FA0EF2FD
:1048E000BDE8104058BF7047401C38BF5FEA420225
:1048F00018BF7047002814BF20F0010041F10001EB
:104900004FEA410313F5001F38BF7047A1F1C041C2
:1049100000F00BBA012A43EB0302ACF1200CDCF1EE
:104920001F0E32BF4FF0000E23FA0CF310EB030002
:1049300041EB0451B4EB115FD0D0A1EB045101F570
:10494000801149085FEA300001EB04510ED350F1A9
:10495000000038BF12FA0EFE08D1BDE81040C9E7CA
:10496000401C38BF5FEA4202CAD1C3E7BDE810402D
:104970004FEA410313F5001F38BF7047A1F1C04152
:1049800000F0D3B99EEA445F08D011EA5E0FBDE89B
:10499000104004BF01F0004100207047BDE8104006
:1049A00070B500F074F900BF64FBBE3E0000E0FF8C
:1049B0002DE9C04130B4DFF8A0C23CEA111418BFA1
:1049C0003CEA131400F0EC8081EA03051CEA1114A0
:1049D00044EAD57418BF1CEA131500F0C780A4EB95
:1049E00005044FF0004545EAC12145EAC32341EAE9
:1049F000505143EA525304F17F74994204F5003454
:104A00004FEAC0204FEAC22208BF904200F09C80CB
:104A10004FEA13650FF24016765D4FEA134506FB29
:104A200005F7C7F1807706FB07F74FEAD737A7FBF3
:104A300003687642C8F58038A7FB06CE38BFA8F1D8
:104A4000010807FB08E64FF0000EA6FB028CE6FB10
:104A500003CEDCF1000CCEF1004E38BFAEF1010EFA
:104A6000A6FB0C584FF000074FF00005E6FB0E8741
:104A7000A1FB08C6A0FB07CE16EB0E0645F100050C
:104A8000E1FB076515F1E04E7EBFA4F580345FEAD7
:104A900046066D4116F1800745F100054FEA1727DC
:104AA0004FEA066647EA0567A6F1DE46B6F1805F83
:104AB0004FEA15251FD9384624F0010C05EBC471C7
:104AC000BCF1FE6F01EB0C1102D8F0BCBDE8008117
:104AD00024425CBF01F5801E9EEAC47F02D4F0BC74
:104AE000BDE80081244238D4F0BCA1F1C041BDE84A
:104AF000004100F01AB94FEAD22242EA43524FEA8B
:104B0000D323A7FB02864FEAD02040EA415007FB9F
:104B100003661EEA0E0F4FEAD12105FB026658BF5D
:104B2000A6EB0056B6EB00564FEA520E4EEAC37E95
:104B300018EB0E0E56EB530EBDD518EB02085E4176
:104B40007F1C55F10005B6E74FF480154FF00007C4
:104B50004FF000064FF00008ADE7F0BC4FF000004A
:104B600001F1C04101F00041BDE8008111EA0C1FD4
:104B70000CEA131500D00CE013EA0C1F00F025809E
:104B80004FF00000F0BC81EA030101F00041BDE8F4
:104B90000081F0BCBDE8004181EA030100F0C5B826
:104BA000F0BCBDE8004170B500F071F8097EFC3E34
:104BB00000F007B881EA03014FF0000001F0004166
:104BC000704781EA030100F0B0B8F0BCBDE80041D5
:104BD0004FF0000021497047FFFDFBF9F7F5F4F2B3
:104BE000F0EEEDEBE9E8E6E4E3E1E0DEDDDBDAD888
:104BF000D7D5D4D3D1D0CFCDCCCBCAC8C7C6C5C4E6
:104C0000C2C1C0BFBEBDBCBBBAB9B8B7B6B5B4B3FC
:104C1000B2B1B0AFAEADACABAAA9A8A8A7A6A5A4E7
:104C2000A3A3A2A1A09F9F9E9D9C9C9B9A999998AB
:104C30009797969595949393929191908F8F8E8E4E
:104C40008D8C8C8B8B8A89898888878786858584DB
:104C500084838382828181800000FF070000F87FC7
:104C600010F0004248BF4042B0FA80F310FA03F15E
:104C70000AD0C3F11D0303F580634FEA415002EBF4
:104C8000035202EBD12170474FF0000070470EF144
:104C9000020E2EF0030E5EF8046B364205D4012A94
:104CA00043EB030515F5001F12D8012841EB010C59
:104CB0001CF5001F0CD80ED14FEAD17C15F5001F52
:104CC0000CEB4C0C0CF1020C08BF4CEBD37C04E059
:104CD0004FF0080C01E04FEAD37C0CEB4C0526FAB0
:104CE00005F606F00706B6F1040C06D20EEB860CAC
:104CF000BDE870404CF0010C6047DFE80CF0090B98
:104D000002024FF000414FF00000A1F5002170BDFC
:104D100019461046012851EB010418BFD4F50014C0
:104D200084BF002001F0004170BD0808A0F500110B
:104D30004FEA31017047000010B591EA030F48BFF8
:104D400083F000433FF594AD841A71EB030C07D256
:104D500012198CF0004C43EB0C03001B61EB0C01AF
:104D6000DFF8A4E14FEA1154A4EB135C1EEA430FF1
:104D700018BF9EEA445F00F0B08023EA6E035242FF
:104D800021EA0451C3EB6E0338BF5B1EDCF1200E39
:104D900025D322FA0CFE10EB0E0043FA0CFE41EB79
:104DA0000E01CCF1200E03FA0EFE10EB0E0051F1B5
:104DB0000001CCF1200E29D412FA0EF201EB0451BD
:104DC000BDE8104058BF7047401C1CBFB2F1004FF7
:104DD000704700280CBF491C20F00100704712EBFF
:104DE000020E43EB030218BF4FF0010E4EEA4202DF
:104DF000ACF1200CDCF11E0E54D943FA0CFE10EB82
:104E00000E0051F1FF31CCF11E0ED5D50EF1010E81
:104E100012FA0EFE404141EB010101EB445C5FEAF6
:104E20005C5C10D910EBDE7001EB045138BFBEF1B1
:104E3000004FBDE8104018BF704700280CBF491C48
:104E400020F00100704730D24FEAD42C11F5001148
:104E500024F400641BD0B1FA81F20B3AA41AA41E08
:104E6000D2F12003914030FA03F31943904001EB53
:104E7000CC71002C01EB0451BDE81040A8BF704775
:104E800001F1C0414FF0000001F000417047B0FA5D
:104E900080F310FA03F100D110BDE41A173C480565
:104EA000C90AE4E701EB045110BD491001EB0451BC
:104EB000BDE810404FEA300002E04FF000017047BB
:104EC0004A0008BF0042F8D0B2F5001F28BF704763
:104ED00001F000414FF0000070479EEA445F07D0A8
:104EE00011EA5E0FBDE8104004BF002100207047AA
:104EF000BDE8104070B5FFF7CAFE00BF40DFF63EC8
:104F000083F00041104670470000E0FF90EA010F77
:104F100048BF81F0004100F16282421A3CBF801A12
:104F200089184FEAD0524FF07F4C1CEA410FA2EB98
:104F3000D15318BF9CEA026F00F03B804FF0004C49
:104F40004CEA00204CEA012121FA03FC10EB0C0C86
:104F50001ED202F1FF325FEA1C2040EBC25038BF84
:104F600070471CF07F0F4FEA400C18BFBCF17F4F19
:104F700038BF7047C3F12003994008BF20F00100FB
:104F8000BCF17F4F38BF7047A0F1C04000F011BAAC
:104F90004FEA3C00000A40EBC25028BF1CF0FF0F54
:104FA0004FEA400CE6D018BFBCF17F4F38BF7047C6
:104FB000EAE79CEA026F05D010EA5C0F08BF00F038
:104FC0000040704710B500F0AEF900BF64FBBE3E74
:104FD0004FF47F0C1CEAD0121EBF1CEAD11392EAD8
:104FE0000C0F93EA0C0F00F0858090EA010F48BF88
:104FF00042F4807240F4000C41F400002CF07F4138
:1050000020F07F4000B58142A2EB03020FF2081CA2
:10501000ACEB504EC0F100009EF800E04FEA4E0E9F
:1050200000FB0EFC38BF49004FEA2C1C02F5FA02C7
:105030000CFB0EF34FEACE1E4FEA112C4FEAC121B2
:105040000EEB635E42EB22420EFB0CFC4FEA1C535C
:1050500000FB03114FEA112C4FEA01310EFB0CFC4F
:105060004FEADC4C00FB0C11C14228BF09184CEB85
:1050700003335DF804EB10EB410143EBC250B2F592
:105080007C0F38BF704729D512F0F00F1CBF00F11C
:10509000C04000F00040704700818283848586878D
:1050A00088898B8C8D8E8F919293959697999A9CE7
:1050B0009D9FA0A2A3A5A7A8AAACAEB0B2B3B5B756
:1050C000B9BCBEC0C2C5C7C9CCCED1D4D7D9DCDF2C
:1050D000E2E6E9ECF0F3F7FAFE0000004FEA400CDC
:1050E0000CF1807CBCF17E4F28BF7047B0F1C0400E
:1050F00000F05FB990EA010F0CEAD11348BF42F407
:105100008072624538BF634507D213F47F0F16D013
:1051100080EA010000F00040704710B500F003F98C
:10512000097EFC3E00F005B880EA010000F0004076
:10513000704780EA010000F0004000F03AB912F434
:105140007F0F04BF0248704780EA010000F031B9C8
:105150000000C07F41000B0ED3F19E0208D950F42D
:1051600000034FEA032323FA02F048BF404270478E
:1051700010B500F0D8F800BF499224800020704795
:105180006FF0004282EA200070470000C10DD1F1AB
:105190009E0206DB4FEA002343F0004323FA02F0AD
:1051A0007047004207D54FEA4001B1F1FE4F02D2ED
:1051B0004FF00000704710B500F0B5F84992248018
:1051C000002070476FEA20007047000010F0004197
:1051D00048BF4042B0FA80F310FA03F2C3F19D03D6
:1051E0000BD051EAC35101EB1220530638BF704770
:1051F00000F1010008BF20F001007047B0FA80F311
:1052000010FA03F2C3F19D030AD0D90501EB122075
:10521000530638BF704700F1010008BF20F00100BD
:10522000704700004FF47F0C1CEAD0121EBF1CEA2E
:10523000D11392EA0C0F93EA0C0F00F0478090EA2A
:10524000010F48BF42F480724FF0004C4CEA00203E
:105250004CEA012102EB0302A0FB0113A2F50002BC
:10526000002918BF43F001035B0028BF4FEA330356
:1052700042EB22425FEA132C4CEBC2502EBFBCEB38
:10528000436FB2F57C0F70474FEA036CBCF1004FDF
:1052900008BF20F00100B2F57C0F38BF70470BD576
:1052A00082F0FF0212F5803FC8BF704700F1C04096
:1052B000D8BF00F00040704700F5000C5FEA4C0CCE
:1052C00048BF7047B0F1C04000F073B890EA010FDA
:1052D0000CEAD11348BF42F48072624538BF63457F
:1052E00004D280EA010000F00040704710B500F0E1
:1052F0001AF800BF8900013E00F007B800F009B8B5
:105300005FEA410C5FEA1C6C08D080EA010000F003
:1053100050B85FEA400C5FEA1C6CF6D14FF00040D9
:10532000A0F5800070470EF1020E2EF0030E5EF81D
:10533000044B244204D44FEA4102B2F17F4F11D80A
:105340004FEA4003B3F17F4F0CD80ED14FEAD07C27
:10535000B2F17F4F0CEB4C0C0CF1020C08BF4CEB84
:10536000D17C04E04FF0080C01E04FEAD17C0CEB5B
:105370004C0324FA03F404F00704B4F1040C06D23D
:105380000EEB840CBDE810404CF0010C6047DFE8E8
:105390000CF0070802024FF00040A0F5800010BD9D
:1053A0000846420018BFD2F1807288BF00F000406A
:1053B00010BDFF2141EAD050C005704780F0004089
:1053C00090EA010F7FF5A9AD81F0004100F007B828
:1053D00090EA010F48BF81F000413FF59EAD421AAF
:1053E00004D882F00042A0EB020011444FEAD052F0
:1053F0004FF07F4C1CEA410FA2EBD15318BF9CEA3F
:10540000026F4AD04FF0004C4CEA00204CEA0121D8
:1054100021FA03FCB0EB0C0C0FD412F0FE0F36D0C7
:105420005FEA4C001DD5001240EBC25038BF7047F8
:105430001CF03F0F18BF70470BE0A2F101025FEABA
:105440001C2040EBC25038BF70471CF07F0F18BFC4
:105450007047C3F12003994014BF401E20F00100A3
:10546000704780084FEA122308BF7047B0FA80FCEB
:10547000A2EB0C02CCF1280C60FA0CF093EA122F8C
:1054800004BF00EBC25070474FEAC3707047130A65
:105490005FEADC1008BF7047F6E79CEA026F04D0B1
:1054A00010EA5C0F08BF0020704710B5FFF73BFF04
:1054B00040DFF63E81F00040704701020203040520
:1054C000060708090A0B0C0D0E0F10100000000053
:1054D00000000000010203040607080900000000A4
:1054E00001020304145600080000002080000000A0
:1054F00028010008945600088000002028090000B8
:10550000440100081001000043000000F8FFFFFF05
:1055100000404040404040404040414141414140C6
:10552000404040404040404040404040404040407B
:10553000400502020202020202020202020202020A
:10554000022020202020202020202002020202020F
:105550000202909090909090101010101010101067
:105560001010101010101010101010100202020273
:1055700002028888888888880808080808080808B7
:1055800008080808080808080808080802020202B3
:1055900040000000000000000000000000000000CB
:1055A00000000000000000000000000000000000FB
:1055B00000000000000000000000000000000000EB
:1055C00000000000000000000000000000000000DB
:1055D00000000000000000000000000000000000CB
:1055E00000000000000000000000000000000000BB
:1055F00000000000000000000000000000000000AB
:10560000000000000000000000000000000000009A
:10561000000000000000000000000000000000008A
:10562000000000000000000000000000000000007A
:10563000000000000000000000000000000000006A
:10564000000020410000003FCDCCCC3D0AD7233CD8
:10565000000000000000000000000000000000004A
:10566000000000000000000000000000000000003A
:10567000000000000000000000000000000000002A
:105680000000000001000000100000000000000009
:0456900000127A008A
:04000005080000ED02
:00000001FF
