:020000040800F2
:10000000180500200101000803150008531400081A
:1000100001150008BB020008651900080000000077
:10002000000000000000000000000000E1150008D2
:10003000F30200080000000005150008E3150008A1
:100040001B0100081B0100081B0100081B01000820
:100050001B0100081B0100081B0100081B01000810
:100060001B0100081B0100081B0100081B01000800
:100070001B0100081B0100081B010008BD0200084D
:100080001B0100081B0100081B0100081B010008E0
:100090001B0100081B0100081B0100081B010008D0
:1000A0001B0100081B0100081B0100081B010008C0
:1000B0001B0100081B0100081B0100081B010008B0
:1000C0001B0100081B0100081B0100081B010008A0
:1000D0001B010008591900081B0100081B0100083A
:1000E0001B0100081B0100081B010008DFF80CD0F1
:1000F00000F070F800480047B1190008180500200A
:100100000648804706480047FEE7FEE7FEE7FEE7B1
:10011000FEE7FEE7FEE7FEE7FEE7FEE7371600082C
:10012000ED000008D2B201E000F8012B491EFBD21D
:1001300070470022F6E710B513460A4604461946F2
:10014000FFF7F0FF204610BD70B5064601F01CFC1D
:10015000046805460A220021304600F002F82C60AF
:1001600070BD2DE9F04791460F46804604460026B3
:1001700014F8015B2DB100F03FF80068405DC00746
:10018000F6D12B2D02D02D2D18D0641E4A463946AB
:10019000204600F035F827B13968A14201D1C7F8EF
:1001A000008071054FF002040BD54042002803DDAA
:1001B00001F0EAFB0460A007BDE8F08746F4806622
:1001C000E4E70028F8DA01F0DFFB04606FF000409C
:1001D000F2E70000064C074D06E0E06840F001033E
:1001E00094E8070098471034AC42F6D3FFF782FF3B
:1001F000E41B0008041C000800487047E01B0008CE
:100200002DE9F05F82460078002715468B460AF1FB
:100210000104B946302801D09DB113E014F8010B58
:100220000127782803D0582801D045B10AE00DB144
:10023000102D07D10027102514F8010B02E0082526
:1002400000E00A250026B0460EE005FB080005FB8D
:1002500006F1012701EB10461FFA80F8B6F5803F42
:1002600000D3B94614F8010B294600F018F800280D
:10027000EBDABBF1000F05D00FB1641E00E054466D
:10028000CBF80040B9F1000F06D001F07DFB022150
:100290000160C81EBDE8F09F48EA0640FAE73A2828
:1002A00000D2303820F02002412A01D3A2F13700D9
:1002B000884201D34FF0FF307047FEE7014800F05D
:1002C0008BB80000D000002030B590F840500124D9
:1002D000AC40C56B6C60046863604368102B0368B6
:1002E00003D099600068C26030BD9A600068C16048
:1002F00030BD704772B6FEE710B590F821100022AD
:10030000022905D00421816380F82020012010BD3E
:1003100001680B6823F00E030B6001680B6823F083
:1003200001030B6090F84030C46B012101FA03F324
:10033000636080F8211080F82020104610BD000076
:1003400010B590F821100024022903D00421816304
:1003500001243DE001680A6822F00E020A6001688B
:100360000A6822F001020A601A4A0168914201D12A
:10037000012121E0174A1432914201D110211BE0E2
:10038000144A2832914201D1891515E0114A3C32B4
:10039000914201D189140FE00E4A5032914202D1AC
:1003A0004FF4803108E00B4A6432914202D14FF49D
:1003B000801101E04FF08071064A083A5160012136
:1003C00080F82110002180F82010416B01B188478E
:1003D000204610BD080002402DE9F05FC16B0C689B
:1003E00001680B68D0F840C0042202FA0CF2494DB3
:1003F000DFF824A1494E4A4FDFF828B1DFF828E1A1
:1004000022422CD05A072AD50A68920603D40A68D9
:1004100022F004020A600168A94201D1042219E015
:10042000514501D1402215E0B14202D14FF4806222
:1004300010E0B94202D14FF480420BE0594502D19D
:100440004FF4802206E0714502D14FF4800201E0B2
:100450004FF080622F4908394A60C16A3BE04FF093
:10046000020808FA0CF818EA040F4FF000094FF0E0
:10047000010235D05FEA837832D50B689B0605D43C
:100480000B6823F00A030B6080F821200168A94261
:1004900001D1022219E0514501D1202215E0B142DB
:1004A00002D14FF4007210E0B94202D14FF4005271
:1004B0000BE0594502D14FF4003206E0714502D1FC
:1004C0004FF4001201E04FF00072124908394A60FF
:1004D00080F82090816A00291AD0BDE8F05F0847B3
:1004E000082505FA0CF5254212D01B0710D50B681C
:1004F00023F00E030B6090F84010C36B02FA01F179
:100500005960826380F8212080F82090016BE2E737
:10051000BDE8F09F080002401C000240300002408D
:1005200044000240580002406C00024030B528B33D
:1005300008C8134914221944B1FBF2F18900C163C0
:1005400010498163022141771A6843F6F0718A43AA
:10055000D0E900142143D0E902452C43214304692A
:1005600021434469214384692143114319600021D7
:100570004163012242770177084630BD012030BD3A
:10058000F8FFFDBF0000024070B5044690F820005F
:10059000002501280CD0012084F8200094F8216067
:1005A0000020012E06D084F820000225284670BDC8
:1005B000022070BD022684F82160A06320680668CE
:1005C00026F0010606602046FFF77EFEE06A00285E
:1005D0002068016802D041F00E0106E021F004011C
:1005E00001602068016841F00A010160206801682B
:1005F00041F001010160D9E72DE9F84FDFF8B8912A
:10060000002409F1040A0AF1040B23460F270BF119
:10061000040EC9E00125A5402A40AA427DD1674EBB
:10062000D1F804C0ACEB0608B44532D014DCBCF100
:10063000030F3AD009DCBCF1000F2AD0BCF1010F46
:100640001CD0BCF1020F31D11DE0BCF1110F17D04D
:10065000BCF1120F2AD119E0B8F5881F19D006DCB9
:10066000B8F5803F15D0B8F5801F1FD111E0B8F55F
:10067000001F0ED0B8F5041F18D10AE0CB6815E0B2
:10068000CB681B1D12E0CB6808330FE0CB680C333E
:100690000CE08B682BB1012B4FF0080303D04561B0
:1006A00004E0042302E0056100E00023FF2A01D8F2
:1006B000064601E000F104064FEA840501D9A5F1E0
:1006C0002005D6F8008007FA05FC28EA0C0803FA92
:1006D00005F548EA0508C6F800804D68ED0062D5CA
:1006E000374DAE6946F00106AE61AD6924F00306F0
:1006F00005F001050095334D06EB050CDCF80850BC
:10070000A607360F07FA06F825EA0805DFF8B880CD
:10071000404503D14FF0000817E044E0DFF8AC801B
:10072000404502D14FF001080FE0DFF8A4804045BA
:1007300002D14FF0020808E0DFF89880404502D16E
:100740004FF0030801E04FF0040808FA06F848EA01
:100750000508CCF808804D68D9F80060ED034D46D7
:1007600001D5164300E096432E604D68DAF800602C
:10077000AD03554601D5164300E096432E604D6803
:10078000DBF80060ED025D4601D5164300E09643BC
:100790002E604D68DEF80060AD02754601D5164347
:1007A00000E096432E60641C0D682A46E5407FF405
:1007B00031AFBDE8F88F00000004014000001110C7
:1007C000001002400000014000080140000C014000
:1007D00000100140001401400AB101617047090492
:1007E000FBE7000001488068704700000C00002013
:1007F0000248816802781144816070470C00002033
:10080000074810B5016841F010010160032000F0B5
:1008100075F8002000F006F800F024F8002010BD64
:100820000020024070B50D4D04464FF47A712878CF
:10083000B1FBF0F00A490968B1FBF0F000F029FCC7
:1008400048B9102C07D200222146501E00F036F87D
:1008500000206C6070BD012070BD00000C00002005
:10086000180000200C4808B5816941F00101816140
:10087000816901F001010091C16941F08051C161BC
:10088000C06900F0805000900448416821F0E061A8
:1008900041F08061416008BD00100240000001404D
:1008A000002809DB00F01F0201219140400980006F
:1008B00000F1E020C0F8001170470000F0B40E4BCA
:1008C0001B680C46C3F30223C3F10705042D00D9AE
:1008D0000425191D072901D2002300E0DB1E012693
:1008E00006FA05F1491E214099409E40761E1640A9
:1008F0003143F0BC01F037B80CED00E0064900F0E0
:10090000070208684FF6FF03184040EA0220034A36
:1009100010430860704700000CED00E00000FA058D
:100920002DE9F0470F46050061D0434E306800F0D6
:100930000700B84209D2306820F007003843306021
:10094000306800F00700B84251D128683B4C81075D
:1009500012D5400703D5606840F4E06060602878F5
:10096000000703D5606840F4605060606068A96863
:1009700020F0F000084360602878C00728D068683D
:10098000012810D02168022810D0890700292EDA0A
:10099000616821F0030101436160FFF723FF804696
:1009A00041F288390DE021688903EFE78901EDE71D
:1009B000FFF718FFA0EB0801494502D90320BDE865
:1009C000F0876068696800F00C00B0EB810FEFD130
:1009D000306800F00700B8420BD9306820F00700FB
:1009E00038433060306800F00700B84201D0012081
:1009F000E5E72878400705D56068E96820F4E060FD
:100A0000084360602878000706D56068296920F4EB
:100A1000605040EAC100606000F038F86168084A40
:100A2000C1F30311515CC8400649086006480068DC
:100A3000FFF7F8FE0020C2E700200240001002404D
:100A4000441B00081800002010000020044805493D
:100A500000684968044AC1F30221515CC8407047EC
:100A60001800002000100240541B000804480549EB
:100A700000684968044AC1F3C221515CC84070470C
:100A80001800002000100240541B000812A185B07D
:100A90000FC98DE80F0014A0144A00680490516833
:100AA000134801F00C03042B10D0082B0ED1C1F316
:100AB0008343C9031DF803000AD5516804AAC1F392
:100AC0004041515C0A4A5043B0FBF1F005B0704719
:100AD00008494843FAE7000002030405060708092D
:100AE0000A0B0C0D0E0F1010010200000010024046
:100AF00000127A0000093D002DE9F84F040070D083
:100B00002078C04DC00749D06868C0F38100012833
:100B100007D06868C0F38100022809D16868C00363
:100B200006D52868800339D560680028E7D035E00D
:100B30006068B0F5803F0BD010B1B0F5A02F11D098
:100B4000286820F480302860286820F4802002E0A3
:100B5000286840F480302860606890B1FFF742FE5A
:100B600006460AE0286840F480202860F0E700BFCD
:100B7000FFF738FE801B642873D828688003F7D5F8
:100B80000CE0FFF72FFE064605E000BFFFF72AFE48
:100B9000801B6428F0D828688003F7D420789A4E08
:100BA00080074FF001094FF0000839D5686810F050
:100BB0000C0F07D06868C0F38100022809D168686B
:100BC000C00306D42868800714D52069012808D1FD
:100BD00010E02069B0B1C6F80090FFF703FE0746A9
:100BE00005E00AE1FFF7FEFDC01B0228C4D8286813
:100BF0008007F7D52868616920F0F80040EAC10055
:100C000028600DE0C6F80080FFF7ECFD074604E021
:100C1000FFF7E8FDC01B022823D828688007F7D417
:100C2000207800072CD57948A169D9B1C0F8009087
:100C3000FFF7D8FD074604E0FFF7D4FDC01B0228EC
:100C40000FD8686A8007F7D571484FF4FA510068E9
:100C5000B0FBF1F0009000BF0098411E0091FAD265
:100C60000EE080E0C0F80080FFF7BCFD074604E01E
:100C7000FFF7B8FDC01B022875D8686A8007F7D453
:100C80002078400760D5E8690027C00008D4E869EB
:100C900040F08050E861E869012700F08050009042
:100CA0005C480168C90513D40168834641F480712A
:100CB0000160FFF797FD824606E000BFFFF792FD57
:100CC000A0EB0A0064284ED8DBF80000C005F5D57B
:100CD000E06801280AD008B1052813D0286A20F05E
:100CE00001002862286A20F0040002E0286A40F02F
:100CF00001002862E06841F2883B98B1FFF772FD7D
:100D000082460BE0286A40F004002862EEE700BF4C
:100D1000FFF768FDA0EB0A0159455AD8286A8007F9
:100D2000F6D50CE0FFF75EFD824605E0FFF75AFDC1
:100D3000A0EB0A0159454CD8286A8007F6D41FB1A8
:100D4000E86920F08050E861E06988B36968C1F320
:100D50008101022944D00228C6F8608004D0FFF740
:100D600041FD044638E034E0FFF73CFD074604E06F
:100D7000FFF738FDC01B02282BD828688001F7D464
:100D8000206AB0F5803F05D16868A16820F4003082
:100D900008436860D4E908010843696821F47411C4
:100DA00008436860C6F86090FFF71CFD044606E043
:100DB00025E000BFFFF716FD001B022809D82868B0
:100DC0008001F7D51BE000BFFFF70CFD001B0228D8
:100DD00002D90320BDE8F88F28688001F4D40EE022
:100DE0000128F7D06868226A00F48031914204D16A
:100DF000616A00F47010884201D00120EAE7002007
:100E0000E8E7000000100240000042428004424235
:100E1000180000200070004070B5040009D0606A1E
:100E2000002540B125616561A56294F8510040B18B
:100E30000CE0012070BD6068B0F5827FF4D0E56100
:100E4000F2E784F85050204600F040F8022084F881
:100E500051002068016821F040010160A0882189CB
:100E600000F4827001F404410843A18901F4006197
:100E70000843217C01F002010843217D01F00101BA
:100E80000843218B01F400710843217F01F03801F0
:100E9000084394F8201001F080010843218D01F4EB
:100EA0000051084321680860A069042101EA10404C
:100EB000216848602068C16921F40061C1616565ED
:100EC000012084F85100002070BD000000B585B0FD
:100ED000002100910191029103910068104988421C
:100EE0001BD11048C16941F48041C161C16901F45D
:100EF00080410491816941F00801816180696946FE
:100F000000F0080004904FF420400090022001906F
:100F1000032003900448FFF76FFB05B000BD0000FD
:100F20000038004000100240000C01402DE9F84F4D
:100F3000044690F8500000271D46164689460128B1
:100F40000DD04FF0010B84F850B0FFF74BFC8046FA
:100F500094F85100BA46012804D0022793E00220F9
:100F6000BDE8F88FB9F1000F73D0002E71D00320C7
:100F700084F85100C4F854A0C4F83090A686E686E0
:100F8000C4F838A0A4F83CA0A4F83EA0C4F844A03B
:100F9000C4F840A0A068B0F5004F09D120680168EE
:100FA00021F0400101602068016841F48041016046
:100FB00020680168490603D4016841F040010160DE
:100FC000E068B0F5006F606803D030B3012E24D024
:100FD00041E008B1012E1CD1206B21680088C86057
:100FE00006E020688168890709D5216B0988C160FE
:100FF000206B801C2063E08E401EE08609E0FFF736
:10100000F1FBA0EB0800A84202D3681C01D031E03C
:101010007DB3E08E0028E4D120E0206B21680078C9
:10102000087306E020688168890709D5216B097873
:101030000173206B401C2063E08E401EE0860AE0B6
:10104000FFF7D0FBA0EB0800A84203D3681C02D036
:1010500010E017E06DB1E08E0028E3D1424629464A
:10106000204600F050FA08B120206065A06818B151
:1010700006E0FFE7032706E02068C168806800906B
:10108000606D00B1012784F851B084F850A0384653
:1010900066E710B5401EB0F1807F01D3012010BD7E
:1010A0004FF0E02460610F21601700F05CFC00202D
:1010B000A06107202061002010BD38B5044690F8DB
:1010C0003E0020281CD181B17AB194F83C0001285F
:1010D00016D0012084F83C002063204600F004FC78
:1010E000002803D1216B012901D0012038BD2168DE
:1010F0000A684A680092CA6842F01002CA6038BDA5
:10110000022038BD0068054A904205D1044A0120FA
:101110001070044A0020505470470000003801400D
:1011200000000020BC00002070470000F8B50268F5
:1011300004461068D168536910F00F0F4FF0000596
:1011400053D003F0010601F4907737435FD0C20714
:1011500005D0CA0503D5226C42F001022264420781
:1011600005D5DA0703D0226C42F00202226482071E
:1011700005D5DA0703D0226C42F00402226402078C
:1011800007D501F02002324303D0226C42F008025E
:101190002264226C002A34D0800604D5880602D549
:1011A000204600F0E9FA20684069216CC0F3801005
:1011B000090700D430B3204600F0BDFA2068416929
:1011C00049061BD5416921F040014161A06BA8B1DE
:1011D00058494163A06BFFF7B3F8002811D0A06B0A
:1011E000416B01B0BDE8F040084783060FD58B0680
:1011F0000DD52046BDE8F84000F0BEBA2046FFF706
:1012000093FFF8BD2046FFF78FFF2564F8BD266BDE
:101210002023012E52D1C60650D5CE064ED51068D9
:1012200050680090506940062AD5A16B0868406854
:101230000004000CEAD0A68D8642E7D9E0858869D3
:10124000202818D0D06820F48070D06020684169D0
:1012500021F0010141612068416921F040014161B3
:1012600084F83E3025632068C16821F01001C16018
:10127000A06BFFF741F8A08DE18D401A81B219E013
:10128000A08DE18D401A81B2E08D0028BED00029EA
:10129000BCD0D06820F49070D0602068426922F001
:1012A0000102426184F83E3025632068C26822F062
:1012B0001002C2602046FFF725FFF8BD05062BD5BA
:1012C0000D0629D594F83D002128F6D1A068B0F587
:1012D000805F01D12069B0B1206A411C2162216880
:1012E00000784860E08C401E0004000CE084E4D1EB
:1012F0002068C16821F08001C1602068C16841F0A8
:101300004001C160F8BD206A0088C0F30800506049
:10131000206A801C2062E5E74006F3D54806F1D537
:10132000D168204621F04001D16084F83D3000F0C2
:101330008FF8F8BD6916000870B5040004D094F861
:101340003D00002510B106E0012070BD84F83C503E
:10135000204600F023F8242084F83D002068C1686E
:1013600021F40051C160204600F062FA2068016952
:1013700021F4904101612068416921F02A01416115
:101380002068C16841F40051C1602564202084F8C0
:101390003D0084F83E00002070BD000070B586B0AE
:1013A000002506460095019502950395006822499F
:1013B00088423ED12149886940F48040886188692B
:1013C00000F480400490886940F0040088618869D6
:1013D0001B4C00F00400049048150090022001907E
:1013E0000320039069462046FFF706F92015CDE952
:1013F0000005694620460295FFF7FEF8124C114899
:10140000C4E900058020C4E9025025616561A56139
:101410002046E561FFF78AF808B1FEF76BFFB46379
:101420000022114625206662FFF748FA2520FFF7C3
:1014300037FA06B070BD00000038014000100240CD
:101440000008014058000240D0000020704770475B
:101450007047FEE710B5FF21092000F013F80A21BC
:10146000084600F00FF807210B2000F00BF80121CF
:101470000C2000F007F80021BDE810400F2000F01C
:1014800001B8000038B50C4D8DF800008DF8011042
:101490004FF48054002221462846FFF79DF94FF073
:1014A000FF33022269460548FFF740FD012221462D
:1014B0002846FFF791F938BD000C014020000020BC
:1014C0000E4810B50C4901604FF482714160002153
:1014D0008160C1604FF400720161C0E90512C16111
:1014E0000162416281620A21C162FFF795FC002816
:1014F00001D072B6FEE710BD003800402000002089
:10150000FEE77047704738B50B460092044600224C
:10151000802100F009F8002804D0606D40F0200020
:101520006065032038BD00002DE9F8431E46914652
:1015300088460446089DFFF755F9401B351AFFF70A
:1015400051F9074625480068C0F3CB30684338E0BE
:10155000701C37D0FFF746F9C01BA84203D215B163
:10156000009860B32CE02068416821F0E001416000
:101570006068B0F5827F0BD1A068B0F5004F02D053
:10158000B0F5806F04D12068016821F0400101604E
:10159000A06AB0F5005F09D12068016821F400510C
:1015A00001602068016841F400510160012084F865
:1015B0005100002084F850000320BDE8F883002586
:1015C000401E00902068816838EA010004D00021A4
:1015D0004945BDD10020F0E70121F9E718000020BE
:1015E0007047FFF705B910B590B028216846FEF79F
:1015F000A0FD14210AA8FEF79CFD02200090012006
:10160000049010200024059007946846FFF774FAB0
:1016100008B172B6FEE70F20CDE90A040C940D94D0
:1016200000210AA80E94FFF77BF9002801D072B6BA
:10163000FEE710B010BD704710B5094C00200949F5
:1016400020701122A1F14400FFF737FD05481C3836
:10165000006AC4F80100601CFEF776FDA06010BDB2
:1016600000000020BC00002010B5406A0021C185A8
:10167000C184FFF759FD10BD70B5446A2068406908
:1016800094F83D10C0F3C0100025212904D118B1F1
:10169000E584204600F067F82068406994F83E1021
:1016A000C0F38010222904D118B1E585204600F04E
:1016B00042F8206C40F0100020642046FFF734FD13
:1016C00070BD10B50146406A0968096889061BD4D7
:1016D0000021C1850168CA6822F48072CA6001686D
:1016E0004A6922F001024A6101684A6922F0400217
:1016F0004A61202180F83E10016B012904D1016864
:10170000CA6822F01002CA60016B012902D0FFF7FB
:101710009DFE10BD818DFFF7F5FC10BD10B5406A30
:10172000016B012902D0FFF792FE10BD818D49089F
:10173000FFF7E8FC10BD0168CA6822F49072CA6025
:1017400001684A6922F001024A61016B012904D152
:101750000168CA6822F01002CA60202180F83E1099
:101760000021016370470168CA6822F0C002CA60A4
:10177000202180F83D10704708B590F83E102229CE
:1017800001D0022008BD82684FF480539A4201D1F3
:10179000016921B1816A9A421BD04AB10AE002680C
:1017A000816A5268C2F308020A80816A891C08E0D3
:1017B000026972B10268526802F07F020A70816A9F
:1017C000491C8162C18D491E0904090CC18503D0E1
:1017D00019E002685268F1E70168CA6822F0200245
:1017E000CA600168CA6822F48072CA6001684A69E6
:1017F00022F001024A61202180F83E10016B01298C
:1018000003D0FFF723FE002008BD0021016301681B
:10181000CA6822F01002CA6001680A68D20602D5BE
:101820000A6849680091818DFFF76CFCEBE70000C6
:1018300070B5044600680169E26821F44051114323
:1018400001612169A0680843616908432168CA6889
:1018500041F20C639A430243CA6020684169A2695D
:1018600021F44071114341611E492068884202D130
:10187000FFF7FCF801E0FFF7E9F800EBC00101EB2E
:101880000012606864218000B2FBF0F3B3FBF1F357
:101890006FF018067343B2FBF0F5B2FBF0F605EB00
:1018A0008305322303EB0515B5FBF1F5B6FBF1F625
:1018B00005F0F00505EB0615B2FBF0F6B2FBF0F013
:1018C000B0FBF1F06FF01802504306EB800003EB21
:1018D0000010B0FBF1F0216800F00F002844886090
:1018E00070BD00000038014038B581628285002556
:1018F000134604460564222084F83E00A26B134878
:101900009062A26B1248D062A26B12481063A06B67
:101910000A4645632168A06B091DFEF735FE206865
:1019200001684168009184F83C50C16841F48071BD
:10193000C1602068416941F001014161206841694D
:1019400041F040014161002038BD0000C31600088D
:101950001D170008791600080148FFF7E7BB0000D3
:1019600078000020FEE70907090E002804DB00F1DB
:10197000E02080F80014704700F00F0000F1E02034
:1019800080F8141D70470000004870471C000020BC
:1019900002E008C8121F08C1002AFAD17047704738
:1019A000002001E001C1121F002AFBD17047000096
:1019B00086B0FEF725FFFFF716FE0025594C00956F
:1019C000019502950395A06940F00800A061A06907
:1019D00000F008000490A06940F00400A061A06934
:1019E000514F00F00400A6140490002231463846FE
:1019F000FEF7F2FE01200096CDE9010502200390DA
:101A000069463846FEF7F8FD606940F00100606104
:101A10006069002200F00100009011460F20FEF7DF
:101A20004DFF0F20FEF73CFFFFF74AFD40483F49BE
:101A300001604FF4E131C0E901150C21C560C0E936
:101A400004518561C561FFF777FC08B172B6FEE706
:101A5000FFF700FD3649112244313548FFF72DFBD1
:101A6000344C0A25DFF8D090DFF8D0A0DFF8D0B0F2
:101A700064264FF47A7742F210782078012801D159
:101A8000FFF7DAFDA068B0FBF5F105FB11010120BD
:101A9000FFF7F8FCA068B0FBF5F0B0FBF5F105FB33
:101AA00011010220FFF7EEFCA068B0FBF6F0B0FBDE
:101AB000F5F105FB11010320FFF7E4FCA068B0FB82
:101AC000F7F0B0FBF5F105FB11010420FFF7DAFC9C
:101AD000A168B1FBF8F0B0FBF5F105FB11010520A1
:101AE000FFF7D0FCA168B1FBF9F0B0FBF5F105FB05
:101AF00011010620FFF7C6FCA168B1FBFAF0B0FBAC
:101B0000F5F105FB11010720FFF7BCFCA168B1FB53
:101B1000FBF0B0FBF5F105FB11010820FFF7B2FC6B
:101B2000ABE7000000100240000C0140003801400B
:101B30007800002000000020A086010040420F0035
:101B400080969800000000000000000001020304DD
:101B5000060708090000000001020304004040409D
:101B60004040404040404141414141404040404070
:101B7000404040404040404040404040400502021C
:101B800002020202020202020202020202202020DB
:101B90002020202020202002020202020202909037
:101BA0009090909010101010101010101010101035
:101BB0001010101010101010020202020202888889
:101BC0008888888808080808080808080808080895
:101BD000080808080808080802020202400000007D
:101BE0005D1B0008041C000800000020200000000D
:101BF00090190008241C000820000020F8040000B0
:101C0000A019000800000000000000000000000013
:101C10000100000010000000000000000024F4009B
:041C200000000000C0
:04000005080000ED02
:00000001FF
