:020000040800F2
:10000000B007002091010008A71A0008671900082E
:10001000A51A00082306000855200008000000006B
:10002000000000000000000000000000AB1A000803
:100030006706000800000000A91A00081D1B000840
:10004000AB010008AB010008AB010008AB010008E0
:10005000AB010008AB010008AB010008AB010008D0
:10006000AB010008AB010008AB010008AB010008C0
:10007000AB010008AB0100082506000831060008A6
:10008000AB010008AB010008AB010008AB010008A0
:10009000AB010008AB010008AB010008AB01000890
:1000A000AB010008751B0008AB010008AB0100089C
:1000B000AB010008AB010008AB010008AB01000870
:1000C000AB010008AB010008AB010008AB01000860
:1000D000AB01000849200008AB010008AB01000893
:1000E000AB010008AB010008AB01000800F002F80A
:1000F00000F03FF80AA090E8000C82448344AAF183
:100100000107DA4501D100F034F8AFF2090EBAE880
:100110000F0013F0010F18BFFB1A43F0010318473B
:100120006820000088200000103A24BF78C878C1F9
:10013000FAD8520724BF30C830C144BF04680C60ED
:10014000704700000023002400250026103A28BF35
:1001500078C1FBD8520728BF30C148BF0B60704739
:10016000782900F07180002070471FB51FBD10B5C1
:1001700010BD00F01CFA1146FFF7F7FF01F082FFF7
:1001800000F03AFA03B4FFF7F2FF03BC00F042FAC2
:100190000948804709480047FEE7FEE7FEE7FEE71B
:1001A000FEE7FEE7FEE7FEE7FEE7FEE70448054957
:1001B000054A064B70470000711B0008ED0000085F
:1001C000B0010020B0070020B0030020B0030020E1
:1001D0000FB41CB5074B06AA7B44694600900598EE
:1001E00000F0CDF90020694600F0DCF91CBC5DF898
:1001F00014FB0000C903000070B50446856900685F
:10020000C10601D5302600E02026C00707D070BD0A
:10021000D4E9012130469047206A401C20626D1EBF
:10022000F6D570BD70B5044685690078C00707D162
:1002300070BDD4E9012120209047206A401C206233
:100240006D1EF6D570BD000070B504460D46214602
:100250001068AFF300802188090502D50F4A7A445F
:1002600002E00E4A7A440E32002104F1240305E034
:1002700000F00F060009965D5E54491C0028F7D176
:1002800020780023000704D5702D02D009B1022385
:1002900011322046BDE8704000F013B9EC1E00009A
:1002A0002DE9F05F894604464FF0000ADFF824B1DB
:1002B000FB44C0F820A02046E168884700287DD094
:1002C000252806D0D4E901219047206A401C2062ED
:1002D000F1E700255F462046E1688847202806466A
:1002E00007DB312E05D2B81910F8200C08B10543F0
:1002F000F1E7A80701D525F00405C4F81CA00027E4
:10030000C4F818A02A2E09D0304601F0B4FE38B344
:1003100004EB8708303EC8F8186019E059F8041B50
:10032000204604EB87029161E1688847012F064669
:1003300018D1E069002820DA25F020051DE0D8F862
:10034000180000EB800006EB40003038C8F81800B9
:100350002046E1688847064601F08DFE0028EED170
:10036000012F0AD02E2E08D12046E16888477F1C35
:100370000646022F45F02005C4DBA069002803DAF9
:10038000404245F00105A061E80701D025F01005C5
:10039000A6B1A6F14100192802D8203645F400651F
:1003A0004A463146204625604D46FFF7D9FE60B1EA
:1003B000012807D0ED1D25F0070000E007E000F15F
:1003C000080978E705F1040975E730467AE7206AFD
:1003D000BDE8F09FC21E000040EA010370B59B0714
:1003E0002ED14FF00136042A2AD308C810C99D1B0C
:1003F0009D43121F15EAC61517D0D8B2E1B2401AB4
:1004000050EA056110D198B2A1B2401A50EA0541F4
:100410000AD123F07F4024F07F41401A50EA0521A1
:1004200002D1180EA0EB146070BDA342DBD018BA45
:1004300021BA884201D9012070BD4FF0FF3070BD54
:100440000AB9002070BD10F8013B11F8014B63B1EF
:10045000A3420AD1521E08D010F8013B11F8014BFB
:100460001BB1A34201D1521EEDD1181B70BD4FF03C
:10047000000200B5134694469646203922BFA0E8F4
:100480000C50A0E80C50B1F12001BFF4F7AF090700
:1004900028BFA0E80C5048BF0CC05DF804EB8900F1
:1004A00028BF40F8042B08BF704748BF20F8022B34
:1004B00011F0804F18BF00F8012B7047704770474C
:1004C00070472DE9F0470D4699469246044600F1E3
:1004D00024080168880604D5E06921F01001216034
:1004E00000E00120A84201DD471B00E00027A169D0
:1004F0007A1902EB0900081AA0612078C00602D41C
:100500002046FFF779FE002608E0D4E901211AF819
:1005100006009047206A401C761C20624E45F4DBA2
:100520002078C0060AD52046FFF766FE06E0D4E92B
:10053000012130209047206A401C2062381EA7F11C
:100540000107F4DC07E0D4E9012118F80500904721
:10055000206A401C2062281EA5F10105F3DC20461C
:10056000FFF760FE2078000602D50220BDE8F08784
:100570000120FBE701694A1C02610878704700B559
:100580008FB0CDE901310021059105497944CDE9CC
:10059000031011466846FFF783FE0FB000BD000050
:1005A000E5FFFFFF0A6802F8010B0A607047754615
:1005B00000F02CF8AE4605006946534620F00700CF
:1005C000854618B020B5FFF7F1FDBDE820404FF09B
:1005D00000064FF000074FF000084FF0000B21F02D
:1005E0000701AC46ACE8C009ACE8C009ACE8C009FA
:1005F000ACE8C0098D46704710B50446AFF30080E3
:100600002046BDE81040FFF7BDBD00000048704720
:100610005001002001491820ABBEFEE72600020071
:100620007047FEE7014800F091B800000C0100207F
:10063000014800F08BB80000C800002030B590F8E9
:1006400040500124AC40C56B6C6004686360436833
:10065000102B036803D099600068C26030BD9A60B7
:100660000068C16030BD704772B6FEE710B590F803
:1006700021100022022905D00421816380F8202066
:10068000012010BD01680B6823F00E030B600168A8
:100690000B6823F001030B6090F84030C46B01211C
:1006A00001FA03F3636080F8211080F820201046DF
:1006B00010BD000010B590F821100024022903D0CD
:1006C0000421816301243DE001680A6822F00E02E2
:1006D0000A6001680A6822F001020A601A4A016889
:1006E000914201D1012121E0174A1432914201D1F6
:1006F00010211BE0144A2832914201D1891515E0DE
:10070000114A3C32914201D189140FE00E4A503215
:10071000914202D14FF4803108E00B4A6432914299
:1007200002D14FF4801101E04FF08071064A083A7F
:100730005160012180F82110002180F82010416BC8
:1007400001B18847204610BD080002402DE9F05F46
:10075000C16B0C6801680B68D0F840C0042202FA33
:100760000CF2494DDFF824A1494E4A4FDFF828B179
:10077000DFF828E122422CD05A072AD50A689206CF
:1007800003D40A6822F004020A600168A94201D178
:10079000042219E0514501D1402215E0B14202D1B5
:1007A0004FF4806210E0B94202D14FF480420BE076
:1007B000594502D14FF4802206E0714502D14FF431
:1007C000800201E04FF080622F4908394A60C16A17
:1007D0003BE04FF0020808FA0CF818EA040F4FF05B
:1007E00000094FF0010235D05FEA837832D50B68FB
:1007F0009B0605D40B6823F00A030B6080F82120C8
:100800000168A94201D1022219E0514501D12022FB
:1008100015E0B14202D14FF4007210E0B94202D1AA
:100820004FF400520BE0594502D14FF4003206E07C
:10083000714502D14FF4001201E04FF000721249ED
:1008400008394A6080F82090816A00291AD0BDE8F2
:10085000F05F0847082505FA0CF5254212D01B0762
:1008600010D50B6823F00E030B6090F84010C36B9B
:1008700002FA01F15960826380F8212080F820900B
:10088000016BE2E7BDE8F09F080002401C00024057
:100890003000024044000240580002406C00024018
:1008A00030B528B308C8134914221944B1FBF2F13A
:1008B0008900C16310498163022141771A6843F6B8
:1008C000F0718A43D0E900142143D0E902452C435A
:1008D000214304692143446921438469214311432D
:1008E000196000214163012242770177084630BD3B
:1008F000012030BDF8FFFDBF0000024070B5044686
:1009000090F82000002501280CD0012084F8200058
:1009100094F821600020012E06D084F820000225E2
:10092000284670BD022070BD022684F82160A063B5
:100930002068066826F0010606602046FFF77EFE66
:10094000E06A00282068016802D041F00E0106E04C
:1009500021F0040101602068016841F00A01016092
:100960002068016841F001010160D9E72DE9F84FE5
:10097000DFF8B8910024A9F1040B23460F2709F1F1
:10098000040AABF1040EC9E00125A5402A40AA42A1
:100990007DD1674ED1F804C0ACEB0608B44532D027
:1009A00014DCBCF1030F3AD009DCBCF1000F2AD0F3
:1009B000BCF1010F1CD0BCF1020F31D11DE0BCF124
:1009C000110F17D0BCF1120F2AD119E0B8F5881F0A
:1009D00019D006DCB8F5803F15D0B8F5801F1FD1BF
:1009E00011E0B8F5001F0ED0B8F5041F18D10AE0C9
:1009F000CB6815E0CB681B1D12E0CB6808330FE015
:100A0000CB680C330CE08B682BB1012B4FF0080343
:100A100003D0456104E0042302E0056100E0002307
:100A2000FF2A01D8064601E000F104064FEA8405DA
:100A300001D9A5F12005D6F8008007FA05FC28EABF
:100A40000C0803FA05F548EA0508C6F800804D6869
:100A5000ED0062D5374DAE6946F00106AE61AD6975
:100A600024F0030605F001050095334D06EB050C57
:100A7000DCF80850A607360F07FA06F825EA08053D
:100A8000DFF8B880404503D14FF0000817E044E09C
:100A9000DFF8AC80404502D14FF001080FE0DFF8ED
:100AA000A480404502D14FF0020808E0DFF89880AA
:100AB000404502D14FF0030801E04FF0040808FA66
:100AC00006F848EA0508CCF808804D68D9F80060B7
:100AD000ED024D4601D5164300E096432E604D6869
:100AE000DAF80060AD02554601D5164300E09643A2
:100AF0002E604D68DBF80060AD035D4601D51643FE
:100B000000E096432E604D68DEF80060ED03754608
:100B100001D5164300E096432E60641C0D682A46FA
:100B2000E5407FF431AFBDE8F88F000008040140D4
:100B300000001110001002400000014000080140B8
:100B4000000C014000100140001401400AB1016195
:100B500070470904FBE70000014880687047000007
:100B600014000020024881680278114481607047B7
:100B700014000020074810B5016841F01001016021
:100B8000032000F075F80F2000F006F800F024F8BC
:100B9000002010BD0020024070B50D4D04464FF4FA
:100BA0007A712878B1FBF0F00A490968B1FBF0F0DE
:100BB00000F0DCFA48B9102C07D200222146501E62
:100BC00000F036F800206C6070BD012070BD0000A0
:100BD00014000020200000200C4808B5816941F075
:100BE00001018161816901F001010091C16941F058
:100BF0008051C161C06900F0805000900448416894
:100C000021F0E06141F00071416008BD0010024038
:100C100000000140002809DB00F01F020121914083
:100C20004009800000F1E020C0F80011704700008A
:100C3000F0B40E4B1B680C46C3F30223C3F1070547
:100C4000042D00D90425191D072901D2002300E035
:100C5000DB1E012606FA05F1491E214099409E40FF
:100C6000761E16403143F0BC01F0F5B90CED00E002
:100C7000064900F0070208684FF6FF03184040EAF3
:100C80000220034A10430860704700000CED00E0AA
:100C90000000FA052DE9F0470F46050061D0434EEC
:100CA000306800F00700B84209D2306820F0070031
:100CB00038433060306800F00700B84251D12868EE
:100CC0003B4C810712D5400703D5606840F4E060D3
:100CD00060602878000703D5606840F46050606069
:100CE0006068A96820F0F000084360602878C007B9
:100CF00028D06868012810D02168022810D0890700
:100D000000292EDA616821F0030101436160FFF7D9
:100D100023FF804641F288390DE021688903EFE71F
:100D20008901EDE7FFF718FFA0EB0801494502D95B
:100D30000320BDE8F0876068696800F00C00B0EB44
:100D4000810FEFD1306800F00700B8420BD930684E
:100D500020F0070038433060306800F00700B842E8
:100D600001D00120E5E72878400705D56068E968EB
:100D700020F4E060084360602878000706D56068CA
:100D8000296920F4605040EAC100606000F038F842
:100D90006168084AC1F30311515CC8400649086004
:100DA00006480068FFF7F8FE0020C2E70020024076
:100DB000001002403621000820000020180000200A
:100DC0000448054900684968044AC1F30221515C9E
:100DD000C840704720000020001002404621000853
:100DE0000448054900684968044AC1F3C221515CBE
:100DF000C840704720000020001002404621000833
:100E00000E4A51680E4801F00C03042B11D0082B38
:100E10000FD10C48C1F38343C903C05C0AD55168A4
:100E2000084AC1F34041921E515C054A5043B0FB51
:100E3000F1F0704704494843704700000010024039
:100E400000127A002621000800093D002DE9F84F24
:100E5000040070D02078C04DC00749D06868C0F346
:100E60008100012807D06868C0F38100022809D1F9
:100E70006868C00306D52868800339D560680028F3
:100E8000E7D035E06068B0F5803F0BD010B1B0F529
:100E9000A02F11D0286820F480302860286820F422
:100EA000802002E0286840F480302860606890B1BB
:100EB000FFF752FE06460AE0286840F480202860CA
:100EC000F0E700BFFFF748FE801B642873D828684E
:100ED0008003F7D50CE0FFF73FFE064605E000BFB4
:100EE000FFF73AFE801B6428F0D828688003F7D407
:100EF00020789A4E80074FF001094FF0000839D54D
:100F0000686810F00C0F07D06868C0F381000228F1
:100F100009D16868C00306D42868800714D5206901
:100F2000012808D110E02069B0B1C6F80090FFF7A1
:100F300013FE074605E00AE1FFF70EFEC01B02287C
:100F4000C4D828688007F7D52868616920F0F800C0
:100F500040EAC10028600DE0C6F80080FFF7FCFD04
:100F6000074604E0FFF7F8FDC01B022823D82868D5
:100F70008007F7D4207800072CD57948A169D9B12A
:100F8000C0F80090FFF7E8FD074604E0FFF7E4FD36
:100F9000C01B02280FD8686A8007F7D571484FF444
:100FA000FA510068B0FBF1F0009000BF0098411EBC
:100FB0000091FAD20EE080E0C0F80080FFF7CCFD8F
:100FC000074604E0FFF7C8FDC01B022875D8686A11
:100FD0008007F7D42078400760D5E8690027C00073
:100FE00008D4E86940F08050E861E869012700F022
:100FF000805000905C480168C90513D4016883469D
:1010000041F480710160FFF7A7FD824606E000BF52
:10101000FFF7A2FDA0EB0A0064284ED8DBF8000021
:10102000C005F5D5E06801280AD008B1052813D01D
:10103000286A20F001002862286A20F0040002E0FB
:10104000286A40F001002862E06841F2883B98B1CC
:10105000FFF782FD82460BE0286A40F00400286218
:10106000EEE700BFFFF778FDA0EB0A0159455AD81B
:10107000286A8007F6D50CE0FFF76EFD824605E092
:10108000FFF76AFDA0EB0A0159454CD8286A800792
:10109000F6D41FB1E86920F08050E861E06988B3B8
:1010A0006968C1F38101022944D00228C6F8608032
:1010B00004D0FFF751FD044638E034E0FFF74CFD63
:1010C000074604E0FFF748FDC01B02282BD828681C
:1010D0008001F7D4206AB0F5803F05D16868A16827
:1010E00020F4003008436860D4E9080108436968C7
:1010F00021F4741108436860C6F86090FFF72CFD76
:10110000044606E025E000BFFFF726FD001B02288D
:1011100009D828688001F7D51BE000BFFFF71CFD48
:10112000001B022802D90320BDE8F88F286880013F
:10113000F4D40EE00128F7D06868226A00F4803108
:10114000914204D1616A00F47010884201D00120FC
:10115000EAE70020E8E700000010024000004242F9
:1011600080044242200000200070004010B5401E64
:10117000B0F1807F01D3012010BD4FF0E024606109
:101180000F21601700F067FF0020A0610720206199
:10119000002010BD7047704770B590F83C20012AC0
:1011A00026D0012480F83C40022280F83D200368CC
:1011B0005A689D6822F070060A6832435A600D4BE7
:1011C00002689A4208D0B2F1804F05D00A4B9A4289
:1011D00002D00A4B9A4204D1496825F08003194392
:1011E000916080F83D40002180F83C10084670BDB9
:1011F000022070BD002C01400004004000080040A7
:1012000010B5040003D094F83D0010B107E00120B0
:1012100010BD002084F83C00204600F01FF802209A
:1012200084F83D00211D206800F0AAFC012084F80C
:10123000460084F83E0084F83F0084F8400084F8BB
:10124000410084F8420084F8430084F8440084F8A4
:10125000450084F83D00002010BD000008B500687E
:101260000B49884212D10B48816941F400618161C8
:101270008069002200F40060009001211920FFF72E
:10128000D7FCBDE808401920FFF7C4BC08BD00002A
:10129000002C01400010024070B5044690F83C005C
:1012A0000025012817D0012684F83C60022084F82C
:1012B0003D002068826822F0770222F47F4282603B
:1012C0000868502838D00DDC20284FD005DC90B3BA
:1012D000102811D14AE0022070BD302846D04028A5
:1012E0000AD13BE060282FD070280DD0B0F5805F88
:1012F00003D0B0F5005F12D0012584F83D600020D6
:1013000084F83C00284670BDCB68D1E901212068F3
:1013100000F072FC2068816841F0770109E0CB6839
:10132000D1E90121206800F067FC2068816841F460
:1013300080418160E1E719E0CA684968206800F0EF
:101340006DFC5021206806E0CA684968206800F0FA
:1013500076FC6021206800F059FCCEE7CA68496835
:10136000206800F05BFC40212068F4E72268014619
:101370001046F0E770472DE9F04104460068C66862
:1013800005694FF00007A90713D5B10711D5F91E5C
:10139000016101202077206880698007204602D003
:1013A000FFF7E8FF04E000F07EF8204600F07CF84C
:1013B0002777680716D5700714D521686FF00400E9
:1013C0000861022020772068806910F4407F204661
:1013D00002D0FFF7CFFF04E000F065F8204600F0F0
:1013E00063F82777280715D5300713D521686FF0E4
:1013F00008000861042020772068C0698007204623
:1014000002D0FFF7B7FF04E000F04DF8204600F0EF
:101410004BF82777E80616D5F00614D521686FF04B
:1014200010000861082020772068C06910F4407F10
:10143000204602D0FFF79EFF04E000F034F820467B
:1014400000F032F82777E80708D0F00706D02168C7
:101450006FF001000861204600F027F8280608D543
:10146000300606D521686FF0800008612046FFF73E
:1014700091FE680608D5700606D521686FF0400019
:101480000861204600F012F8A8060AD5B00608D573
:1014900021686FF0200008612046BDE8F041FFF7A9
:1014A0007ABEBDE8F081704770477047704738B525
:1014B000044690F84200202801D0022038BD51B1E6
:1014C0004AB10120206300206063204600F03AFD0D
:1014D000216B012901D0012038BD21680A684968C3
:1014E000009121680C3151E8002F42F0100241E8D0
:1014F0000023002BF5D138BD00680349884202D192
:1015000002490120087070470038014000000020A7
:1015100070470000F8B5016804460868CA684B695E
:1015200010F00F0F4FF000055AD003F0010602F43F
:101530009077374365D0C10705D0D10503D5616CDD
:1015400041F001016164410705D5D90703D0616C01
:1015500041F002016164810705D5D90703D0616CB0
:1015600041F004016164010707D502F02001314315
:1015700003D0616C41F008016164616C00293BD0CB
:10158000800604D5900602D5204600F01EFC206897
:101590004069616CC0F3801001F0080101432046EE
:1015A0002BD000F0DDFB20684069400621D5206883
:1015B000143050E8001F21F0400140E80012002ADA
:1015C000F5D1E06BA8B16D494163E06BFFF772F8AC
:1015D000002811D0E06B416B01B0BDE8F040084736
:1015E00083060ED593060CD52046BDE8F84000F0E2
:1015F000ECBB2046FFF78CFFF8BDFFF789FF656461
:10160000F8BD266B2023012E7CD1C6067AD5D606DE
:1016100078D508684868009048694FF0020640068F
:1016200040D5E16B086840680004000CE8D0A28D4A
:101630008242E5D9E085886920282DD020680C30C9
:1016400050E8001F21F4807140E80012002AF5D113
:101650002168143151E8000F20F0010041E8000238
:10166000002AF5D12068143050E8001F21F0400115
:1016700040E80012002AF5D184F842302563206842
:101680000C3050E8001F21F0100140E80012002A41
:10169000F5D1E06BFEF7EAFF6663A08DE18D401A9D
:1016A00081B22AE0A08DE18D401A81B2E08D002840
:1016B000A6D00029A4D022680C3252E8000F20F4F2
:1016C000907042E80007002FF5D12068143050E8F0
:1016D000002F22F0010240E80027002FF5D184F806
:1016E0004230256320680C3050E8002F22F01002B1
:1016F00040E80023002BF5D166632046FFF7FCFE8F
:10170000F8BDFFE705062BD5150629D594F841004D
:101710002128F5D1A068B0F5805F01D12069B0B172
:10172000206A411C2162216800784860E08C401EDC
:101730000004000CE084E3D12068C16821F080013E
:10174000C1602068C16841F04001C160D8E7206AEB
:101750000088C0F308004860206A801C2062E5E72A
:101760004006CDD55006CBD5CA68204622F04002AF
:10177000CA6084F8413000F0F5F8C1E7631C000846
:1017800070B5040004D094F84100002510B106E0C3
:10179000012070BD84F84050204600F023F824203A
:1017A00084F841002068C16821F40051C1602046DE
:1017B00000F06CFB2068016921F490410161206810
:1017C000416921F02A0141612068C16841F400515A
:1017D000C1606564202084F8410084F8420065639C
:1017E000002070BDF0B585B0002406460094019439
:1017F0000294039400682C49884253D12B48816994
:1018000041F480418161816901F4804104918169E1
:1018100041F0040181618069254D00F004000490CD
:101820004FF400700090022001900320039069465D
:101830002846FFF79BF82815CDE90004694628469D
:101840000294FFF793F81C4D1A488027C5E900045D
:10185000C5E902472C616C61AC612846EC61FFF779
:101860001FF808B1FEF700FFF5636E621148134DD3
:10187000143801C5102091C5202045F81049C5E94C
:1018800005400E48EC61FFF70BF808B1FEF7ECFEDF
:10189000B5630022114625206E62FFF7C9F92520A5
:1018A000FFF7B8F905B0F0BD003801400010024064
:1018B0000008014058000240C80000200C01002030
:1018C000704770472DE9F843044690F84100984668
:1018D00016460D46202802D00220BDE8F88385B1C7
:1018E0007EB100206064212084F84100FFF734F9C4
:1018F000A6848146E684A0682027B0F5805F02D0E8
:1019000003E00120E9E7206910B12E4600250EE032
:1019100000260CE08021204600F05CFBA8B9C6B18F
:1019200016F8010B21684860E08C401EE084E08CD2
:101930004B464FF00002CDF800800028EAD14FF06E
:101940004001204600F046FB40B184F8417003207E
:10195000C3E735F8020BC0F30800E3E784F84170F1
:101960000020BAE77047FEE770B5124801785329A6
:101970001FD1417945291CD10621A0F10C040A464A
:10198000A1700DA1A060FEF727FD0D4E4FF400558C
:1019900068B106220BA1A068FEF71EFD002808D141
:1019A000012229463046BDE87040FFF7CFB800223B
:1019B000F7E770BD0C000020534F4E4C444500002B
:1019C00000100140534F464C4445000070B586B0AE
:1019D000002418480094019402940394816941F012
:1019E00010018161816901F010010491816941F068
:1019F00020018161816901F020010491816941F038
:101A00000401816180690C4E00F004004FF4005520
:101A10000490002229463046FFF798F801200095EF
:101A2000CDE901040220039069463046FEF79EFF8F
:101A300006B070BD001002400010014010B586B025
:101A400000241748009401940294039404941349C9
:101A50000594C0E900144FF6FF71C0E9024104612A
:101A600044618461FFF7CCFB08B172B6FEE74FF426
:101A70008050009069460A48FFF70EFC08B172B624
:101A8000FEE7049404A906480594FFF785FB0028A7
:101A900001D072B6FEE706B010BD0000002C014078
:101AA00024000020FEE7FEE7704770472DE9F04173
:101AB000164C0025164F657004F10C06607815A1D0
:101AC000325C07EB4000FEF783FB6078401CC0B23D
:101AD00060700528F2D90E494FF0FF3633461422C4
:101AE000A1F14800FFF7EEFE0849094833460422F9
:101AF000C91C4838FFF7E6FE2570BDE8F0410349F0
:101B0000034806220C314838FFF7D1BC0000002002
:101B1000B40000202530325800000000FFF722B842
:101B200010B590B028216846FEF7A1FC14210AA840
:101B3000FEF79DFC0220009001200490102000245C
:101B4000059007946846FFF781F908B172B6FEE781
:101B50000F20CDE90A040C940D9400210AA80E94DC
:101B6000FFF798F8002801D072B6FEE710B010BD5C
:101B7000704700000148FFF7FEBB00002400002072
:101B8000F0B50268194B1A4C1A4D4FF08047984235
:101B900005D0B84203D0A04201D0A84203D122F020
:101BA00070064A683243984205D0B84203D0A0423A
:101BB00001D0A84203D122F44074CA6822434C6980
:101BC00022F08002224302608A68C2620A6882624E
:101BD000984201D109690163012141610169C90785
:101BE00003D0016921F001010161F0BD002C014029
:101BF000000400400008004010B5846842EA032257
:101C000024F47F440A432243826010BD826822F09C
:101C100070020A4342F007018160704710B5036A01
:101C2000046A24F001040462846924F0F00444EAA4
:101C3000021423F00A020A438461026210BD10B547
:101C4000036A046A24F010040462846923F0A00388
:101C500024F4704444EA023243EA011182610162D1
:101C600010BD10B5406A0021C185C184FFF750FC4A
:101C700010BD70B5446A2068406994F84110C0F303
:101C8000C0100025212904D118B1E584204600F0B8
:101C90008EF82068406994F84210C0F38010222921
:101CA00004D118B1E585204600F05AF8606C40F088
:101CB000100060642046FFF72BFC70BD10B5014694
:101CC000406A096809684FF0000289062ED4C2856F
:101CD00001680C3151E8003F23F4807341E800347F
:101CE000002CF5D10168143151E8003F23F00103C5
:101CF00041E80034002CF5D10168143151E8003F6F
:101D000023F0400341E80034002CF5D1202180F875
:101D10004210016B012909D101680C3151E8003FE3
:101D200023F0100341E80034002CF5D14263016B2D
:101D3000012902D0FFF7C4FD10BD818DFFF7DCFB48
:101D400010BD10B5406A01214163016B012902D029
:101D5000FFF7B7FD10BD818D4908FFF7CDFB10BD22
:101D600001680C3151E8002F22F4907241E8002301
:101D7000002BF5D10168143151E8002F22F0010247
:101D800041E80023002BF5D1016B012909D101683D
:101D90000C3151E8002F22F0100241E80023002B03
:101DA000F5D1202180F842100021016370470168BD
:101DB0000C3151E8002F22F0C00241E80023002B33
:101DC000F5D1202180F84110704708B590F84210F5
:101DD000222901D0022008BD82684FF480539A4224
:101DE00001D1016921B1816A9A421BD04AB10AE04E
:101DF0000268816A5268C2F308020A80816A891CFB
:101E000008E0026972B10268526802F07F020A704B
:101E1000816A491C8162C18D491E0904090CC18572
:101E200003D01BE002685268F1E70168CA6822F03B
:101E30002002CA600168CA6822F48072CA60016820
:101E40004A6922F001024A61202180F842100021F3
:101E50004163026B012A03D0FFF732FD002008BD69
:101E6000016301680C3151E8002F22F0100241E8B3
:101E70000023002BF5D101680A68D20602D50A6852
:101E800049680091818DFFF737FBE7E770B504469D
:101E900000680169E26821F4405111430161216940
:101EA000A0680843616908432168CA6841F20C636D
:101EB0009A430243CA6020684169A26921F44071D3
:101EC000114341611E492068884202D1FEF788FF14
:101ED00001E0FEF775FF00EBC00101EB0012606846
:101EE00064218000B2FBF0F3B3FBF1F36FF018064E
:101EF0007343B2FBF0F5B2FBF0F605EB830532233A
:101F000003EB0515B5FBF1F5B6FBF1F605F0F005B1
:101F100005EB0615B2FBF0F6B2FBF0F0B0FBF1F00A
:101F20006FF01802504306EB800003EB0010B0FB8B
:101F3000F1F0216800F00F002844886070BD0000B7
:101F40000038014038B5816204468285002013467E
:101F50006064222284F84220E56B1B4AAA62E56B8A
:101F60001A4AEA62E56B1A4A2A63E26B50630A4630
:101F70002168E06B091DFEF7C1FC2068016840681C
:101F80000090206948B120680C3050E8001F41F4EF
:101F9000807140E80012002AF5D12068143050E822
:101FA000001F41F0010140E80012002AF5D120682D
:101FB000143050E8001F41F0400140E80012002AB0
:101FC000F5D1002038BD0000BD1C0008431D0008ED
:101FD000731C00082DE9F843984617460D46044641
:101FE000089E24E0701C22D0FEF7B6FDA0EB08008E
:101FF000B0421AD8CEB12068C168490717D5802DE4
:1020000015D0402D13D00168C94309070FD40168CA
:102010000025406800902046FFF7A2FE082060647B
:1020200084F840500120BDE8F8830320FBE72068D6
:10203000006835EA000004D00020B842D2D0002069
:10204000F1E70120F9E700000148FFF763BA00005B
:102050006C000020FEE70907090E002804DB00F1F0
:10206000E02080F80014704700F00F0000F1E0203D
:1020700080F8141D704730380A2801D201207047BB
:102080000020704708B5FEF775FDFFF749FDFFF723
:102090009DFC2048416941F00101416140690022F5
:1020A00000F00100009011460E20FEF7C1FD0E2049
:1020B000FEF7B0FD002211460F20FEF7B9FD0F20FC
:1020C000FEF7A8FD15481449002401604FF4E131E2
:1020D000C0E901140C21C460C0E904418461C461F9
:1020E000FFF74EFB08B172B6FEE7FFF7A7FC06222A
:1020F0000B490A48FFF7DBF9094E094D0C3E3078D1
:102100000128FCD1FFF7D2FCFFF72EFC2C60AC803D
:10211000F5E7000000100240003801406C0000208C
:102120000C000020010202030405060708090A0B3F
:102130000C0D0E0F10100000000000000000010246
:1021400003040607080900000000010203043031FF
:1021500032333435363738394142434445464030CE
:102160005800303132333435363738396162636480
:1021700065664030780004000008000000000000A0
:102180000002000100001000A8210008000000204B
:102190002400000028010008CC21000824000020B1
:1021A0008C070000440100080000000D200A000018
:1021B000000000000000000000000000010000001E
:0C21C000100000000000000000127A0077
:04000005080000ED02
:00000001FF
